{
  "contractName": "HomeStay",
  "abi": [
    {
      "constant": true,
      "inputs": [
        {
          "name": "",
          "type": "uint256"
        }
      ],
      "name": "rooms",
      "outputs": [
        {
          "name": "roomId",
          "type": "uint256"
        },
        {
          "name": "roomName",
          "type": "string"
        },
        {
          "name": "roomType",
          "type": "uint8"
        },
        {
          "name": "imgHashes",
          "type": "string"
        },
        {
          "name": "description",
          "type": "string"
        },
        {
          "name": "landlord",
          "type": "address"
        },
        {
          "name": "upVotes",
          "type": "uint256"
        },
        {
          "name": "rentPerDay",
          "type": "uint256"
        },
        {
          "name": "numberOfGuestsCanStay",
          "type": "uint8"
        },
        {
          "components": [
            {
              "name": "latitude",
              "type": "string"
            },
            {
              "name": "longitude",
              "type": "string"
            }
          ],
          "name": "location",
          "type": "tuple"
        }
      ],
      "payable": false,
      "stateMutability": "view",
      "type": "function"
    },
    {
      "constant": true,
      "inputs": [
        {
          "name": "",
          "type": "uint256"
        }
      ],
      "name": "bookings",
      "outputs": [
        {
          "name": "bookingId",
          "type": "uint256"
        },
        {
          "name": "roomId",
          "type": "uint256"
        },
        {
          "name": "startTime",
          "type": "uint256"
        },
        {
          "name": "endTime",
          "type": "uint256"
        },
        {
          "name": "bookedAt",
          "type": "uint256"
        },
        {
          "name": "amount",
          "type": "uint256"
        },
        {
          "name": "totalDays",
          "type": "uint256"
        },
        {
          "name": "landlord",
          "type": "address"
        },
        {
          "name": "tenant",
          "type": "address"
        },
        {
          "name": "bookingStatus",
          "type": "uint8"
        }
      ],
      "payable": false,
      "stateMutability": "view",
      "type": "function"
    },
    {
      "constant": true,
      "inputs": [],
      "name": "bookingCount",
      "outputs": [
        {
          "name": "",
          "type": "uint256"
        }
      ],
      "payable": false,
      "stateMutability": "view",
      "type": "function"
    },
    {
      "constant": true,
      "inputs": [
        {
          "name": "",
          "type": "address"
        }
      ],
      "name": "landLordDetails",
      "outputs": [
        {
          "name": "name",
          "type": "string"
        },
        {
          "name": "email",
          "type": "string"
        },
        {
          "name": "contactNumber",
          "type": "string"
        }
      ],
      "payable": false,
      "stateMutability": "view",
      "type": "function"
    },
    {
      "constant": true,
      "inputs": [],
      "name": "owner",
      "outputs": [
        {
          "name": "",
          "type": "address"
        }
      ],
      "payable": false,
      "stateMutability": "view",
      "type": "function"
    },
    {
      "constant": true,
      "inputs": [],
      "name": "roomCount",
      "outputs": [
        {
          "name": "",
          "type": "uint256"
        }
      ],
      "payable": false,
      "stateMutability": "view",
      "type": "function"
    },
    {
      "inputs": [],
      "payable": false,
      "stateMutability": "nonpayable",
      "type": "constructor"
    },
    {
      "anonymous": false,
      "inputs": [
        {
          "indexed": true,
          "name": "_landlord",
          "type": "address"
        },
        {
          "indexed": false,
          "name": "_name",
          "type": "string"
        },
        {
          "indexed": false,
          "name": "_email",
          "type": "string"
        },
        {
          "indexed": false,
          "name": "_contactNumber",
          "type": "string"
        }
      ],
      "name": "LandlordCreated",
      "type": "event"
    },
    {
      "anonymous": false,
      "inputs": [
        {
          "indexed": false,
          "name": "_roomId",
          "type": "uint256"
        },
        {
          "indexed": false,
          "name": "_roomName",
          "type": "string"
        },
        {
          "indexed": false,
          "name": "_roomType",
          "type": "uint8"
        },
        {
          "indexed": false,
          "name": "_landlord",
          "type": "address"
        },
        {
          "indexed": false,
          "name": "_rentPerDay",
          "type": "uint256"
        }
      ],
      "name": "RoomCreated",
      "type": "event"
    },
    {
      "anonymous": false,
      "inputs": [
        {
          "indexed": false,
          "name": "_bookingId",
          "type": "uint256"
        },
        {
          "indexed": false,
          "name": "_roomId",
          "type": "uint256"
        },
        {
          "indexed": true,
          "name": "_landlord",
          "type": "address"
        },
        {
          "indexed": true,
          "name": "_tenant",
          "type": "address"
        },
        {
          "indexed": false,
          "name": "_bookingStatus",
          "type": "uint8"
        }
      ],
      "name": "Booked",
      "type": "event"
    },
    {
      "anonymous": false,
      "inputs": [
        {
          "indexed": false,
          "name": "_bookingId",
          "type": "uint256"
        },
        {
          "indexed": false,
          "name": "_roomId",
          "type": "uint256"
        },
        {
          "indexed": true,
          "name": "_landlord",
          "type": "address"
        },
        {
          "indexed": true,
          "name": "_tenant",
          "type": "address"
        },
        {
          "indexed": false,
          "name": "_bookingStatus",
          "type": "uint8"
        }
      ],
      "name": "BookingCancelled",
      "type": "event"
    },
    {
      "constant": false,
      "inputs": [
        {
          "name": "_name",
          "type": "string"
        },
        {
          "name": "_email",
          "type": "string"
        },
        {
          "name": "_contactNumber",
          "type": "string"
        }
      ],
      "name": "createLandlordAccount",
      "outputs": [
        {
          "name": "",
          "type": "bool"
        }
      ],
      "payable": false,
      "stateMutability": "nonpayable",
      "type": "function"
    },
    {
      "constant": false,
      "inputs": [
        {
          "name": "_roomName",
          "type": "string"
        },
        {
          "name": "_roomType",
          "type": "uint8"
        },
        {
          "name": "_imgHashes",
          "type": "string"
        },
        {
          "name": "_description",
          "type": "string"
        },
        {
          "name": "_rentPerDay",
          "type": "uint256"
        },
        {
          "name": "_numberOfGuestsCanStay",
          "type": "uint8"
        },
        {
          "name": "_lat",
          "type": "string"
        },
        {
          "name": "_long",
          "type": "string"
        }
      ],
      "name": "createRoom",
      "outputs": [
        {
          "name": "",
          "type": "bool"
        }
      ],
      "payable": false,
      "stateMutability": "nonpayable",
      "type": "function"
    },
    {
      "constant": true,
      "inputs": [],
      "name": "getAllRooms",
      "outputs": [
        {
          "components": [
            {
              "name": "roomId",
              "type": "uint256"
            },
            {
              "name": "roomName",
              "type": "string"
            },
            {
              "name": "roomType",
              "type": "uint8"
            },
            {
              "name": "imgHashes",
              "type": "string"
            },
            {
              "name": "description",
              "type": "string"
            },
            {
              "name": "landlord",
              "type": "address"
            },
            {
              "name": "upVotes",
              "type": "uint256"
            },
            {
              "name": "rentPerDay",
              "type": "uint256"
            },
            {
              "name": "numberOfGuestsCanStay",
              "type": "uint8"
            },
            {
              "components": [
                {
                  "name": "latitude",
                  "type": "string"
                },
                {
                  "name": "longitude",
                  "type": "string"
                }
              ],
              "name": "location",
              "type": "tuple"
            }
          ],
          "name": "",
          "type": "tuple[]"
        }
      ],
      "payable": false,
      "stateMutability": "view",
      "type": "function"
    },
    {
      "constant": false,
      "inputs": [
        {
          "name": "_roomId",
          "type": "uint256"
        },
        {
          "name": "_startTime",
          "type": "uint256"
        },
        {
          "name": "_endTime",
          "type": "uint256"
        },
        {
          "name": "_landlord",
          "type": "address"
        }
      ],
      "name": "bookRoom",
      "outputs": [
        {
          "name": "",
          "type": "bool"
        }
      ],
      "payable": true,
      "stateMutability": "payable",
      "type": "function"
    },
    {
      "constant": true,
      "inputs": [],
      "name": "getAllBookings",
      "outputs": [
        {
          "components": [
            {
              "name": "bookingId",
              "type": "uint256"
            },
            {
              "name": "roomId",
              "type": "uint256"
            },
            {
              "name": "startTime",
              "type": "uint256"
            },
            {
              "name": "endTime",
              "type": "uint256"
            },
            {
              "name": "bookedAt",
              "type": "uint256"
            },
            {
              "name": "amount",
              "type": "uint256"
            },
            {
              "name": "totalDays",
              "type": "uint256"
            },
            {
              "name": "landlord",
              "type": "address"
            },
            {
              "name": "tenant",
              "type": "address"
            },
            {
              "name": "bookingStatus",
              "type": "uint8"
            }
          ],
          "name": "",
          "type": "tuple[]"
        }
      ],
      "payable": false,
      "stateMutability": "view",
      "type": "function"
    },
    {
      "constant": false,
      "inputs": [
        {
          "name": "_bookingId",
          "type": "uint256"
        }
      ],
      "name": "cancelBooking",
      "outputs": [
        {
          "name": "",
          "type": "bool"
        }
      ],
      "payable": true,
      "stateMutability": "payable",
      "type": "function"
    }
  ],
  "bytecode": "0x608060405234801561001057600080fd5b5060008081905550600060018190555033600260006101000a81548173ffffffffffffffffffffffffffffffffffffffff021916908373ffffffffffffffffffffffffffffffffffffffff1602179055506127cd806100706000396000f3fe6080604052600436106100ba576000357c0100000000000000000000000000000000000000000000000000000000900463ffffffff1680630dca825e146100bf5780631bae0ac8146100ef5780631dab301e146101355780634245f2fe1461017b5780636d759172146101a65780637dd5e30e146101d157806386739d431461020e5780638da5cb5b1461024d5780639d8d355114610278578063b3e75a34146102a8578063df93a4e3146102e5578063f794cf2d14610310575b600080fd5b6100d960048036036100d49190810190611e7a565b61033b565b6040516100e691906122f4565b60405180910390f35b3480156100fb57600080fd5b5061011660048036036101119190810190611e7a565b610681565b60405161012c9a9998979695949392919061241c565b60405180910390f35b34801561014157600080fd5b5061015c60048036036101579190810190611e7a565b610a34565b6040516101729a9998979695949392919061250b565b60405180910390f35b34801561018757600080fd5b50610190610ae4565b60405161019d91906122b0565b60405180910390f35b3480156101b257600080fd5b506101bb610c64565b6040516101c891906123a7565b60405180910390f35b3480156101dd57600080fd5b506101f860048036036101f39190810190611d50565b610c6a565b60405161020591906122f4565b60405180910390f35b34801561021a57600080fd5b5061023560048036036102309190810190611c90565b610f0b565b6040516102449392919061235b565b60405180910390f35b34801561025957600080fd5b506102626110fd565b60405161026f9190612295565b60405180910390f35b610292600480360361028d9190810190611ea3565b611123565b60405161029f91906122f4565b60405180910390f35b3480156102b457600080fd5b506102cf60048036036102ca9190810190611cb9565b611487565b6040516102dc91906122f4565b60405180910390f35b3480156102f157600080fd5b506102fa6115ca565b60405161030791906123a7565b60405180910390f35b34801561031c57600080fd5b506103256115d0565b60405161033291906122d2565b60405180910390f35b60006001548210151561034d57600080fd5b610355611aba565b60058381548110151561036457fe5b90600052602060002090600902016101406040519081016040529081600082015481526020016001820154815260200160028201548152602001600382015481526020016004820154815260200160058201548152602001600682015481526020016007820160009054906101000a900473ffffffffffffffffffffffffffffffffffffffff1673ffffffffffffffffffffffffffffffffffffffff1673ffffffffffffffffffffffffffffffffffffffff1681526020016008820160009054906101000a900473ffffffffffffffffffffffffffffffffffffffff1673ffffffffffffffffffffffffffffffffffffffff1673ffffffffffffffffffffffffffffffffffffffff1681526020016008820160149054906101000a900460ff16600281111561048f57fe5b600281111561049a57fe5b815250509050600060028111156104ad57fe5b81610120015160028111156104be57fe5b1415156104ca57600080fd5b4281604001511115156104dc57600080fd5b3373ffffffffffffffffffffffffffffffffffffffff1681610100015173ffffffffffffffffffffffffffffffffffffffff1614151561051b57600080fd5b6001816101200190600281111561052e57fe5b9081600281111561053b57fe5b81525050600081608001518260400151038260a00151606442856040015103020281151561056557fe5b0490503373ffffffffffffffffffffffffffffffffffffffff166108fc829081150290604051600060405180830381858888f193505050501580156105ae573d6000803e3d6000fd5b508160e0015173ffffffffffffffffffffffffffffffffffffffff166108fc828460a00151039081150290604051600060405180830381858888f193505050501580156105ff573d6000803e3d6000fd5b503373ffffffffffffffffffffffffffffffffffffffff168260e0015173ffffffffffffffffffffffffffffffffffffffff167f1576e22754024919b520ba328aab237062583023a5f71482b3694c187eb5dee886856020015186610120015160405161066e939291906124d4565b60405180910390a3600192505050919050565b60048181548110151561069057fe5b90600052602060002090600b0201600091509050806000015490806001018054600181600116156101000203166002900480601f0160208091040260200160405190810160405280929190818152602001828054600181600116156101000203166002900480156107425780601f1061071757610100808354040283529160200191610742565b820191906000526020600020905b81548152906001019060200180831161072557829003601f168201915b5050505050908060020160009054906101000a900460ff1690806003018054600181600116156101000203166002900480601f0160208091040260200160405190810160405280929190818152602001828054600181600116156101000203166002900480156107f35780601f106107c8576101008083540402835291602001916107f3565b820191906000526020600020905b8154815290600101906020018083116107d657829003601f168201915b505050505090806004018054600181600116156101000203166002900480601f0160208091040260200160405190810160405280929190818152602001828054600181600116156101000203166002900480156108915780601f1061086657610100808354040283529160200191610891565b820191906000526020600020905b81548152906001019060200180831161087457829003601f168201915b5050505050908060050160009054906101000a900473ffffffffffffffffffffffffffffffffffffffff16908060060154908060070154908060080160009054906101000a900460ff169080600901604080519081016040529081600082018054600181600116156101000203166002900480601f0160208091040260200160405190810160405280929190818152602001828054600181600116156101000203166002900480156109845780601f1061095957610100808354040283529160200191610984565b820191906000526020600020905b81548152906001019060200180831161096757829003601f168201915b50505050508152602001600182018054600181600116156101000203166002900480601f016020809104026020016040519081016040528092919081815260200182805460018160011615610100020316600290048015610a265780601f106109fb57610100808354040283529160200191610a26565b820191906000526020600020905b815481529060010190602001808311610a0957829003601f168201915b50505050508152505090508a565b600581815481101515610a4357fe5b90600052602060002090600902016000915090508060000154908060010154908060020154908060030154908060040154908060050154908060060154908060070160009054906101000a900473ffffffffffffffffffffffffffffffffffffffff16908060080160009054906101000a900473ffffffffffffffffffffffffffffffffffffffff16908060080160149054906101000a900460ff1690508a565b60606005805480602002602001604051908101604052809291908181526020016000905b82821015610c5b57838290600052602060002090600902016101406040519081016040529081600082015481526020016001820154815260200160028201548152602001600382015481526020016004820154815260200160058201548152602001600682015481526020016007820160009054906101000a900473ffffffffffffffffffffffffffffffffffffffff1673ffffffffffffffffffffffffffffffffffffffff1673ffffffffffffffffffffffffffffffffffffffff1681526020016008820160009054906101000a900473ffffffffffffffffffffffffffffffffffffffff1673ffffffffffffffffffffffffffffffffffffffff1673ffffffffffffffffffffffffffffffffffffffff1681526020016008820160149054906101000a900460ff166002811115610c3d57fe5b6002811115610c4857fe5b8152505081526020019060010190610b08565b50505050905090565b60015481565b6000808951111515610c7b57600080fd5b60008651111515610c8b57600080fd5b60008860ff166004811115610c9c57fe5b905060046101406040519081016040528060005481526020018c8152602001836004811115610cc757fe5b81526020018a81526020018981526020013373ffffffffffffffffffffffffffffffffffffffff168152602001600081526020018881526020018760ff1681526020016040805190810160405280888152602001878152508152509080600181540180825580915050906001820390600052602060002090600b020160009091929091909150600082015181600001556020820151816001019080519060200190610d73929190611b45565b5060408201518160020160006101000a81548160ff02191690836004811115610d9857fe5b02179055506060820151816003019080519060200190610db9929190611b45565b506080820151816004019080519060200190610dd6929190611b45565b5060a08201518160050160006101000a81548173ffffffffffffffffffffffffffffffffffffffff021916908373ffffffffffffffffffffffffffffffffffffffff16021790555060c0820151816006015560e082015181600701556101008201518160080160006101000a81548160ff021916908360ff160217905550610120820151816009016000820151816000019080519060200190610e7a929190611b45565b506020820151816001019080519060200190610e97929190611b45565b5050505050507f6bc6c5b765e309d60c416ff0f90e67d7fa30045c0d1ffee1ad147ffd9a35e96d6000548b83338a604051610ed69594939291906123c2565b60405180910390a1610ef46001600054611a2d90919063ffffffff16565b600081905550600191505098975050505050505050565b6003602052806000526040600020600091509050806000018054600181600116156101000203166002900480601f016020809104026020016040519081016040528092919081815260200182805460018160011615610100020316600290048015610fb75780601f10610f8c57610100808354040283529160200191610fb7565b820191906000526020600020905b815481529060010190602001808311610f9a57829003601f168201915b505050505090806001018054600181600116156101000203166002900480601f0160208091040260200160405190810160405280929190818152602001828054600181600116156101000203166002900480156110555780601f1061102a57610100808354040283529160200191611055565b820191906000526020600020905b81548152906001019060200180831161103857829003601f168201915b505050505090806002018054600181600116156101000203166002900480601f0160208091040260200160405190810160405280929190818152602001828054600181600116156101000203166002900480156110f35780601f106110c8576101008083540402835291602001916110f3565b820191906000526020600020905b8154815290600101906020018083116110d657829003601f168201915b5050505050905083565b600260009054906101000a900473ffffffffffffffffffffffffffffffffffffffff1681565b600080548510151561113457600080fd5b8173ffffffffffffffffffffffffffffffffffffffff1660048681548110151561115a57fe5b90600052602060002090600b020160050160009054906101000a900473ffffffffffffffffffffffffffffffffffffffff1673ffffffffffffffffffffffffffffffffffffffff161415156111ae57600080fd5b60006111c38585611a4b90919063ffffffff16565b90506111db6201518082611a6490919063ffffffff16565b9050346004878154811015156111ed57fe5b90600052602060002090600b020160070154820214151561120d57600080fd5b6000349050611226606482611a6490919063ffffffff16565b905061123c606382611a7f90919063ffffffff16565b9050600080905060056101406040519081016040528060015481526020018a81526020018981526020018881526020014281526020018481526020018581526020018773ffffffffffffffffffffffffffffffffffffffff1681526020013373ffffffffffffffffffffffffffffffffffffffff1681526020018360028111156112c257fe5b81525090806001815401808255809150509060018203906000526020600020906009020160009091929091909150600082015181600001556020820151816001015560408201518160020155606082015181600301556080820151816004015560a0820151816005015560c0820151816006015560e08201518160070160006101000a81548173ffffffffffffffffffffffffffffffffffffffff021916908373ffffffffffffffffffffffffffffffffffffffff1602179055506101008201518160080160006101000a81548173ffffffffffffffffffffffffffffffffffffffff021916908373ffffffffffffffffffffffffffffffffffffffff1602179055506101208201518160080160146101000a81548160ff021916908360028111156113ea57fe5b02179055505050503373ffffffffffffffffffffffffffffffffffffffff168573ffffffffffffffffffffffffffffffffffffffff167f90d3eb3cc72f76c87893095fe8ea9bbfedc0b422e430ad2bb4708467991eb2796001548b85604051611455939291906124d4565b60405180910390a361147260018054611a2d90919063ffffffff16565b60018190555060019350505050949350505050565b600080845111151561149857600080fd5b600083511115156114a857600080fd5b600082511115156114b857600080fd5b60606040519081016040528085815260200184815260200183815250600360003373ffffffffffffffffffffffffffffffffffffffff1673ffffffffffffffffffffffffffffffffffffffff168152602001908152602001600020600082015181600001908051906020019061152f929190611b45565b50602082015181600101908051906020019061154c929190611b45565b506040820151816002019080519060200190611569929190611b45565b509050503373ffffffffffffffffffffffffffffffffffffffff167fce1251d1b17b8713067ad8d469b75afb6da6f16ccb9ae5e18c5ca4cb6181eaa88585856040516115b79392919061230f565b60405180910390a2600190509392505050565b60005481565b60606004805480602002602001604051908101604052809291908181526020016000905b82821015611a2457838290600052602060002090600b0201610140604051908101604052908160008201548152602001600182018054600181600116156101000203166002900480601f0160208091040260200160405190810160405280929190818152602001828054600181600116156101000203166002900480156116bc5780601f10611691576101008083540402835291602001916116bc565b820191906000526020600020905b81548152906001019060200180831161169f57829003601f168201915b505050505081526020016002820160009054906101000a900460ff1660048111156116e357fe5b60048111156116ee57fe5b8152602001600382018054600181600116156101000203166002900480601f01602080910402602001604051908101604052809291908181526020018280546001816001161561010002031660029004801561178b5780601f106117605761010080835404028352916020019161178b565b820191906000526020600020905b81548152906001019060200180831161176e57829003601f168201915b50505050508152602001600482018054600181600116156101000203166002900480601f01602080910402602001604051908101604052809291908181526020018280546001816001161561010002031660029004801561182d5780601f106118025761010080835404028352916020019161182d565b820191906000526020600020905b81548152906001019060200180831161181057829003601f168201915b505050505081526020016005820160009054906101000a900473ffffffffffffffffffffffffffffffffffffffff1673ffffffffffffffffffffffffffffffffffffffff1673ffffffffffffffffffffffffffffffffffffffff16815260200160068201548152602001600782015481526020016008820160009054906101000a900460ff1660ff1660ff16815260200160098201604080519081016040529081600082018054600181600116156101000203166002900480601f0160208091040260200160405190810160405280929190818152602001828054600181600116156101000203166002900480156119665780601f1061193b57610100808354040283529160200191611966565b820191906000526020600020905b81548152906001019060200180831161194957829003601f168201915b50505050508152602001600182018054600181600116156101000203166002900480601f016020809104026020016040519081016040528092919081815260200182805460018160011615610100020316600290048015611a085780601f106119dd57610100808354040283529160200191611a08565b820191906000526020600020905b8154815290600101906020018083116119eb57829003601f168201915b50505050508152505081525050815260200190600101906115f4565b50505050905090565b6000808284019050838110151515611a4157fe5b8091505092915050565b6000828211151515611a5957fe5b818303905092915050565b6000808284811515611a7257fe5b0490508091505092915050565b600080831415611a925760009050611ab4565b60008284029050828482811515611aa557fe5b04141515611aaf57fe5b809150505b92915050565b6101406040519081016040528060008152602001600081526020016000815260200160008152602001600081526020016000815260200160008152602001600073ffffffffffffffffffffffffffffffffffffffff168152602001600073ffffffffffffffffffffffffffffffffffffffff16815260200160006002811115611b3f57fe5b81525090565b828054600181600116156101000203166002900490600052602060002090601f016020900481019282601f10611b8657805160ff1916838001178555611bb4565b82800160010185558215611bb4579182015b82811115611bb3578251825591602001919060010190611b98565b5b509050611bc19190611bc5565b5090565b611be791905b80821115611be3576000816000905550600101611bcb565b5090565b90565b6000611bf682356126e1565b905092915050565b6000611c0a82356126f3565b905092915050565b600082601f8301121515611c2557600080fd5b8135611c38611c33826125d4565b6125a7565b91508082526020830160208301858383011115611c5457600080fd5b611c5f838284612740565b50505092915050565b6000611c748235612705565b905092915050565b6000611c88823561270f565b905092915050565b600060208284031215611ca257600080fd5b6000611cb084828501611bea565b91505092915050565b600080600060608486031215611cce57600080fd5b600084013567ffffffffffffffff811115611ce857600080fd5b611cf486828701611c12565b935050602084013567ffffffffffffffff811115611d1157600080fd5b611d1d86828701611c12565b925050604084013567ffffffffffffffff811115611d3a57600080fd5b611d4686828701611c12565b9150509250925092565b600080600080600080600080610100898b031215611d6d57600080fd5b600089013567ffffffffffffffff811115611d8757600080fd5b611d938b828c01611c12565b9850506020611da48b828c01611c7c565b975050604089013567ffffffffffffffff811115611dc157600080fd5b611dcd8b828c01611c12565b965050606089013567ffffffffffffffff811115611dea57600080fd5b611df68b828c01611c12565b9550506080611e078b828c01611c68565b94505060a0611e188b828c01611c7c565b93505060c089013567ffffffffffffffff811115611e3557600080fd5b611e418b828c01611c12565b92505060e089013567ffffffffffffffff811115611e5e57600080fd5b611e6a8b828c01611c12565b9150509295985092959890939650565b600060208284031215611e8c57600080fd5b6000611e9a84828501611c68565b91505092915050565b60008060008060808587031215611eb957600080fd5b6000611ec787828801611c68565b9450506020611ed887828801611c68565b9350506040611ee987828801611c68565b9250506060611efa87828801611bfe565b91505092959194509250565b611f0f81612660565b82525050565b6000611f208261261a565b808452602084019350611f3283612600565b60005b82811015611f6557611f48868351612078565b611f5182612646565b915061014086019550600181019050611f35565b50849250505092915050565b6000611f7c82612625565b80845260208401935083602082028501611f958561260d565b60005b84811015611fce578383038852611fb0838351612188565b9250611fbb82612653565b9150602088019750600181019050611f98565b508196508694505050505092915050565b611fe881612672565b82525050565b611ff78161271c565b82525050565b6120068161272e565b82525050565b60006120178261263b565b80845261202b81602086016020860161274f565b61203481612782565b602085010191505092915050565b600061204d82612630565b80845261206181602086016020860161274f565b61206a81612782565b602085010191505092915050565b6101408201600082015161208f6000850182612277565b5060208201516120a26020850182612277565b5060408201516120b56040850182612277565b5060608201516120c86060850182612277565b5060808201516120db6080850182612277565b5060a08201516120ee60a0850182612277565b5060c082015161210160c0850182612277565b5060e082015161211460e0850182611f06565b50610100820151612129610100850182611f06565b5061012082015161213e610120850182611fee565b50505050565b600060408301600083015184820360008601526121618282612042565b9150506020830151848203602086015261217b8282612042565b9150508091505092915050565b6000610140830160008301516121a16000860182612277565b50602083015184820360208601526121b98282612042565b91505060408301516121ce6040860182611ffd565b50606083015184820360608601526121e68282612042565b915050608083015184820360808601526122008282612042565b91505060a083015161221560a0860182611f06565b5060c083015161222860c0860182612277565b5060e083015161223b60e0860182612277565b50610100830151612250610100860182612286565b5061012083015184820361012086015261226a8282612144565b9150508091505092915050565b612280816126ca565b82525050565b61228f816126d4565b82525050565b60006020820190506122aa6000830184611f06565b92915050565b600060208201905081810360008301526122ca8184611f15565b905092915050565b600060208201905081810360008301526122ec8184611f71565b905092915050565b60006020820190506123096000830184611fdf565b92915050565b60006060820190508181036000830152612329818661200c565b9050818103602083015261233d818561200c565b90508181036040830152612351818461200c565b9050949350505050565b600060608201905081810360008301526123758186612042565b905081810360208301526123898185612042565b9050818103604083015261239d8184612042565b9050949350505050565b60006020820190506123bc6000830184612277565b92915050565b600060a0820190506123d76000830188612277565b81810360208301526123e9818761200c565b90506123f86040830186611ffd565b6124056060830185611f06565b6124126080830184612277565b9695505050505050565b600061014082019050612432600083018d612277565b8181036020830152612444818c612042565b9050612453604083018b611ffd565b8181036060830152612465818a612042565b905081810360808301526124798189612042565b905061248860a0830188611f06565b61249560c0830187612277565b6124a260e0830186612277565b6124b0610100830185612286565b8181036101208301526124c38184612144565b90509b9a5050505050505050505050565b60006060820190506124e96000830186612277565b6124f66020830185612277565b6125036040830184611fee565b949350505050565b600061014082019050612521600083018d612277565b61252e602083018c612277565b61253b604083018b612277565b612548606083018a612277565b6125556080830189612277565b61256260a0830188612277565b61256f60c0830187612277565b61257c60e0830186611f06565b61258a610100830185611f06565b612598610120830184611fee565b9b9a5050505050505050505050565b6000604051905081810181811067ffffffffffffffff821117156125ca57600080fd5b8060405250919050565b600067ffffffffffffffff8211156125eb57600080fd5b601f19601f8301169050602081019050919050565b6000602082019050919050565b6000602082019050919050565b600081519050919050565b600081519050919050565b600081519050919050565b600081519050919050565b6000602082019050919050565b6000602082019050919050565b600061266b826126aa565b9050919050565b60008115159050919050565b600060038210151561268c57fe5b819050919050565b60006005821015156126a257fe5b819050919050565b600073ffffffffffffffffffffffffffffffffffffffff82169050919050565b6000819050919050565b600060ff82169050919050565b60006126ec826126aa565b9050919050565b60006126fe826126aa565b9050919050565b6000819050919050565b600060ff82169050919050565b60006127278261267e565b9050919050565b600061273982612694565b9050919050565b82818337600083830152505050565b60005b8381101561276d578082015181840152602081019050612752565b8381111561277c576000848401525b50505050565b6000601f19601f830116905091905056fea265627a7a72305820e66ad5e50c63fa0a7ddf9b0797b63b8000964f2296a63accce06fe4cec75e11f6c6578706572696d656e74616cf50037",
  "source": "pragma solidity ^0.5.0;\npragma experimental ABIEncoderV2;\n\nimport \"./safemath.sol\";\n\n/// @title main contract of homeStay\n/// @author yaswanthsaivendra\ncontract HomeStay {\n    using SafeMath for uint256;\n\n    uint public roomCount;\n    uint public bookingCount;\n    address payable public owner;\n\n    constructor() public {\n        roomCount = 0;\n        bookingCount = 0;\n        owner = msg.sender;\n    }\n\n    mapping(address => Landlord) public landLordDetails;\n    Room[] public rooms;\n    Booking[] public bookings;\n    // mapping(uint => Room) public rooms;\n    // mapping (uint=>Booking) public bookings;\n\n    struct Landlord {\n        string name;\n        string email;\n        string contactNumber;\n    }\n\n    event LandlordCreated (\n        address indexed _landlord,\n        string _name,\n        string _email,\n        string _contactNumber\n    );\n\n    enum RoomType {Bungalow, Villa, Apartment, Penthouse, House}\n\n    struct Location {\n        string latitude;\n        string longitude;\n    }\n\n    struct Room {\n        uint roomId;    //we will have a room with id 0\n        string roomName;\n        RoomType roomType;\n        string imgHashes;\n        string description;\n        address payable landlord;\n        uint upVotes;\n        uint rentPerDay;    //in wei, in frontend - ether\n        uint8 numberOfGuestsCanStay;\n        Location location;\n    }\n\n    event RoomCreated (\n        uint _roomId,\n        string _roomName,\n        RoomType _roomType,\n        address payable _landlord,\n        uint _rentPerDay\n    );\n\n    enum BookingStatus { Booked , Refunded, CheckedIn}\n\n    struct Booking {\n        uint bookingId; //we will have a booking with id 0\n        uint roomId;\n        uint startTime;\n        uint endTime;\n        uint bookedAt;\n        uint amount;\n        uint totalDays;\n        address payable landlord;\n        address payable tenant;\n        BookingStatus bookingStatus;\n    }\n\n    event Booked (\n        uint _bookingId,\n        uint _roomId,\n        address payable indexed _landlord,\n        address payable indexed _tenant,\n        BookingStatus _bookingStatus\n    );\n\n     event BookingCancelled (\n        uint _bookingId,\n        uint _roomId,\n        address payable indexed _landlord,\n        address payable indexed _tenant,\n        BookingStatus _bookingStatus\n    );\n\n    function createLandlordAccount(string memory _name, string memory _email, string memory _contactNumber) public returns(bool) {\n        require(bytes(_name).length > 0);\n        require(bytes(_email).length > 0);\n        require(bytes(_contactNumber).length > 0);\n        landLordDetails[msg.sender] = Landlord(_name, _email, _contactNumber);\n        emit LandlordCreated(msg.sender, _name, _email, _contactNumber);\n        return true;\n    }\n\n    function createRoom(string memory _roomName, uint8 _roomType, string memory _imgHashes, string memory _description, uint _rentPerDay, uint8 _numberOfGuestsCanStay, string memory _lat, string memory _long) public returns(bool){\n        require(bytes(_roomName).length > 0);\n        require(bytes(_description).length > 0);\n        RoomType ourRoomType = RoomType(_roomType);\n        rooms.push(Room(roomCount, _roomName, ourRoomType, _imgHashes , _description, msg.sender, 0, _rentPerDay, _numberOfGuestsCanStay, Location(_lat, _long)));\n        emit RoomCreated(roomCount ,_roomName, ourRoomType, msg.sender, _rentPerDay);\n        roomCount = roomCount.add(1);\n        return true;\n    }\n\n    function getAllRooms() public view returns(Room[] memory) {\n        return rooms;\n    }\n\n    // function getRoomsOfOwner()\n\n    /// @notice function to book a room\n    /// @dev We will take 1% ether of every booking payment so that it make up to the revenue of our app and this revenue generated can be used for gas fees for further transactions\n    /// @param _startTime start time of our booking in seconds from unix timestamp\n    /// @param _endTime end time of our booking in seconds from unix timestamp\n    /// @return true returns a boolean true and emit an event if the booking got succeed\n    function bookRoom(uint _roomId, uint _startTime, uint _endTime, address payable _landlord) payable public returns(bool) {\n        require(_roomId < roomCount);\n        require(rooms[_roomId].landlord == _landlord);\n        // for(uint i=0; i < bookingCount-1; i++) {\n        //     if(bookings[i].bookingStatus != BookingStatus.Refunded) {\n        //         if(bookings[i].startTime <= _startTime){\n        //         require(bookings[i].endTime <= _endTime);\n        //         }\n        //         else if(bookings[i].startTime >= _startTime){\n        //             require(bookings[i].endTime >= _endTime);\n        //         }\n        //     }\n        // }\n        uint _days = _endTime.sub(_startTime);\n        _days = _days.div(86400);\n        require(_days*(rooms[_roomId].rentPerDay) == msg.value);\n        uint _amount = msg.value;\n        _amount = _amount.div(100);\n        _amount = _amount.mul(99);\n        BookingStatus _bookingStatus = BookingStatus.Booked;\n        bookings.push(Booking(bookingCount, _roomId, _startTime, _endTime, block.timestamp, _amount, _days, _landlord, msg.sender, _bookingStatus));\n        emit Booked(bookingCount, _roomId, _landlord, msg.sender, _bookingStatus);\n        bookingCount = bookingCount.add(1);\n        return true;\n\n    }\n\n\n    function getAllBookings() public view returns(Booking[] memory) {\n        return bookings;\n    }\n\n    function cancelBooking(uint _bookingId) public payable returns(bool) {\n        require(_bookingId < bookingCount);\n        Booking memory _booking = bookings[_bookingId];\n        require(_booking.bookingStatus == BookingStatus.Booked);\n        require(_booking.startTime > block.timestamp);\n        require(_booking.tenant == msg.sender);\n        _booking.bookingStatus = BookingStatus.Refunded;\n        uint amountToRefund = ((_booking.startTime - block.timestamp)*(100) * _booking.amount)/(_booking.startTime - _booking.bookedAt);\n        msg.sender.transfer(amountToRefund);\n        _booking.landlord.transfer(_booking.amount - amountToRefund);\n        emit BookingCancelled(_bookingId, _booking.roomId, _booking.landlord, msg.sender, _booking.bookingStatus);\n        return true;\n    }\n\n    // function checkIn\n}",
  "sourcePath": "/home/yaswanth/homeStay/src/contracts/HomeStay.sol",
  "compiler": {
    "name": "solc",
    "version": "0.5.0+commit.1d4f565a.Emscripten.clang"
  },
  "schemaVersion": "3.0.1",
  "updatedAt": "2022-06-12T09:31:54.544Z",
  "devdoc": {
    "author": "yaswanthsaivendra",
    "methods": {
      "bookRoom(uint256,uint256,uint256,address)": {
        "details": "We will take 1% ether of every booking payment so that it make up to the revenue of our app and this revenue generated can be used for gas fees for further transactions",
        "params": {
          "_endTime": "end time of our booking in seconds from unix timestamp",
          "_startTime": "start time of our booking in seconds from unix timestamp"
        },
        "return": "true returns a boolean true and emit an event if the booking got succeed"
      }
    },
    "title": "main contract of homeStay"
  },
  "userdoc": {
    "methods": {
      "bookRoom(uint256,uint256,uint256,address)": {
        "notice": "function to book a room"
      }
    }
  }
}