{
  "contractName": "HomeStay",
  "abi": [
    {
      "constant": true,
      "inputs": [
        {
          "name": "",
          "type": "uint256"
        }
      ],
      "name": "rooms",
      "outputs": [
        {
          "name": "id",
          "type": "uint256"
        },
        {
          "name": "roomName",
          "type": "string"
        },
        {
          "name": "roomType",
          "type": "uint8"
        },
        {
          "name": "description",
          "type": "string"
        },
        {
          "name": "owner",
          "type": "address"
        },
        {
          "name": "upVotes",
          "type": "uint256"
        },
        {
          "name": "rentPerDay",
          "type": "uint256"
        },
        {
          "name": "numberOfGuestsCanStay",
          "type": "uint8"
        },
        {
          "components": [
            {
              "name": "latitude",
              "type": "string"
            },
            {
              "name": "longitude",
              "type": "string"
            }
          ],
          "name": "location",
          "type": "tuple"
        }
      ],
      "payable": false,
      "stateMutability": "view",
      "type": "function",
      "signature": "0x1bae0ac8"
    },
    {
      "constant": true,
      "inputs": [
        {
          "name": "",
          "type": "uint256"
        }
      ],
      "name": "bookings",
      "outputs": [
        {
          "name": "bookingId",
          "type": "uint256"
        },
        {
          "name": "roomId",
          "type": "uint256"
        },
        {
          "name": "startTime",
          "type": "uint256"
        },
        {
          "name": "endTime",
          "type": "uint256"
        },
        {
          "name": "bookedAt",
          "type": "uint256"
        },
        {
          "name": "amount",
          "type": "uint256"
        },
        {
          "name": "owner",
          "type": "address"
        },
        {
          "name": "tenant",
          "type": "address"
        },
        {
          "name": "bookingStatus",
          "type": "uint8"
        }
      ],
      "payable": false,
      "stateMutability": "view",
      "type": "function",
      "signature": "0x1dab301e"
    },
    {
      "constant": true,
      "inputs": [
        {
          "name": "",
          "type": "address"
        }
      ],
      "name": "landLordDetails",
      "outputs": [
        {
          "name": "name",
          "type": "string"
        },
        {
          "name": "email",
          "type": "string"
        },
        {
          "name": "contactNumber",
          "type": "string"
        }
      ],
      "payable": false,
      "stateMutability": "view",
      "type": "function",
      "signature": "0x86739d43"
    },
    {
      "constant": true,
      "inputs": [],
      "name": "roomCount",
      "outputs": [
        {
          "name": "",
          "type": "uint256"
        }
      ],
      "payable": false,
      "stateMutability": "view",
      "type": "function",
      "signature": "0xdf93a4e3"
    },
    {
      "inputs": [],
      "payable": false,
      "stateMutability": "nonpayable",
      "type": "constructor",
      "signature": "constructor"
    },
    {
      "anonymous": false,
      "inputs": [
        {
          "indexed": true,
          "name": "_owner",
          "type": "address"
        },
        {
          "indexed": false,
          "name": "_name",
          "type": "string"
        },
        {
          "indexed": false,
          "name": "_email",
          "type": "string"
        },
        {
          "indexed": false,
          "name": "_contactNumber",
          "type": "string"
        }
      ],
      "name": "LandlordCreated",
      "type": "event",
      "signature": "0xce1251d1b17b8713067ad8d469b75afb6da6f16ccb9ae5e18c5ca4cb6181eaa8"
    },
    {
      "anonymous": false,
      "inputs": [
        {
          "indexed": false,
          "name": "roomCount",
          "type": "uint256"
        },
        {
          "indexed": false,
          "name": "_roomName",
          "type": "string"
        },
        {
          "indexed": false,
          "name": "_roomType",
          "type": "uint8"
        },
        {
          "indexed": false,
          "name": "_owner",
          "type": "address"
        },
        {
          "indexed": false,
          "name": "_rentPerDay",
          "type": "uint256"
        }
      ],
      "name": "RoomCreated",
      "type": "event",
      "signature": "0x6bc6c5b765e309d60c416ff0f90e67d7fa30045c0d1ffee1ad147ffd9a35e96d"
    },
    {
      "anonymous": false,
      "inputs": [
        {
          "indexed": false,
          "name": "_bookingId",
          "type": "uint256"
        },
        {
          "indexed": false,
          "name": "_roomId",
          "type": "uint256"
        },
        {
          "indexed": true,
          "name": "_owner",
          "type": "address"
        },
        {
          "indexed": true,
          "name": "_tenant",
          "type": "address"
        },
        {
          "indexed": false,
          "name": "_bookingStatus",
          "type": "uint8"
        }
      ],
      "name": "Booked",
      "type": "event",
      "signature": "0x90d3eb3cc72f76c87893095fe8ea9bbfedc0b422e430ad2bb4708467991eb279"
    },
    {
      "constant": false,
      "inputs": [
        {
          "name": "_name",
          "type": "string"
        },
        {
          "name": "_email",
          "type": "string"
        },
        {
          "name": "_contactNumber",
          "type": "string"
        }
      ],
      "name": "createLandlordAccount",
      "outputs": [
        {
          "name": "",
          "type": "bool"
        }
      ],
      "payable": false,
      "stateMutability": "nonpayable",
      "type": "function",
      "signature": "0xb3e75a34"
    },
    {
      "constant": false,
      "inputs": [
        {
          "name": "_roomName",
          "type": "string"
        },
        {
          "name": "_roomType",
          "type": "uint8"
        },
        {
          "name": "_imgHashes",
          "type": "string[]"
        },
        {
          "name": "_description",
          "type": "string"
        },
        {
          "name": "_rentPerDay",
          "type": "uint256"
        },
        {
          "name": "_numberOfGuestsCanStay",
          "type": "uint8"
        },
        {
          "name": "_lat",
          "type": "string"
        },
        {
          "name": "_long",
          "type": "string"
        }
      ],
      "name": "createRoom",
      "outputs": [
        {
          "name": "",
          "type": "bool"
        }
      ],
      "payable": false,
      "stateMutability": "nonpayable",
      "type": "function",
      "signature": "0x93ce7a6f"
    },
    {
      "constant": true,
      "inputs": [],
      "name": "getAllRooms",
      "outputs": [
        {
          "components": [
            {
              "name": "id",
              "type": "uint256"
            },
            {
              "name": "roomName",
              "type": "string"
            },
            {
              "name": "roomType",
              "type": "uint8"
            },
            {
              "name": "imgHashes",
              "type": "string[]"
            },
            {
              "name": "description",
              "type": "string"
            },
            {
              "name": "owner",
              "type": "address"
            },
            {
              "name": "upVotes",
              "type": "uint256"
            },
            {
              "name": "rentPerDay",
              "type": "uint256"
            },
            {
              "name": "numberOfGuestsCanStay",
              "type": "uint8"
            },
            {
              "components": [
                {
                  "name": "latitude",
                  "type": "string"
                },
                {
                  "name": "longitude",
                  "type": "string"
                }
              ],
              "name": "location",
              "type": "tuple"
            }
          ],
          "name": "",
          "type": "tuple[]"
        }
      ],
      "payable": false,
      "stateMutability": "view",
      "type": "function",
      "signature": "0xf794cf2d"
    }
  ],
  "bytecode": "0x608060405234801561001057600080fd5b5060008081905550611d01806100276000396000f3fe608060405260043610610083576000357c0100000000000000000000000000000000000000000000000000000000900463ffffffff1680631bae0ac8146100885780631dab301e146100cd57806386739d431461011257806393ce7a6f14610151578063b3e75a341461018e578063df93a4e3146101cb578063f794cf2d146101f6575b600080fd5b34801561009457600080fd5b506100af60048036036100aa9190810190611522565b610221565b6040516100c49998979695949392919061196a565b60405180910390f35b3480156100d957600080fd5b506100f460048036036100ef9190810190611522565b610536565b60405161010999989796959493929190611a0c565b60405180910390f35b34801561011e57600080fd5b5061013960048036036101349190810190611338565b6105d1565b604051610148939291906118a9565b60405180910390f35b34801561015d57600080fd5b50610178600480360361017391908101906113f8565b6107c3565b6040516101859190611842565b60405180910390f35b34801561019a57600080fd5b506101b560048036036101b09190810190611361565b610a56565b6040516101c29190611842565b60405180910390f35b3480156101d757600080fd5b506101e0610b99565b6040516101ed91906118f5565b60405180910390f35b34801561020257600080fd5b5061020b610b9f565b6040516102189190611820565b60405180910390f35b60028181548110151561023057fe5b90600052602060002090600b0201600091509050806000015490806001018054600181600116156101000203166002900480601f0160208091040260200160405190810160405280929190818152602001828054600181600116156101000203166002900480156102e25780601f106102b7576101008083540402835291602001916102e2565b820191906000526020600020905b8154815290600101906020018083116102c557829003601f168201915b5050505050908060020160009054906101000a900460ff1690806004018054600181600116156101000203166002900480601f0160208091040260200160405190810160405280929190818152602001828054600181600116156101000203166002900480156103935780601f1061036857610100808354040283529160200191610393565b820191906000526020600020905b81548152906001019060200180831161037657829003601f168201915b5050505050908060050160009054906101000a900473ffffffffffffffffffffffffffffffffffffffff16908060060154908060070154908060080160009054906101000a900460ff169080600901604080519081016040529081600082018054600181600116156101000203166002900480601f0160208091040260200160405190810160405280929190818152602001828054600181600116156101000203166002900480156104865780601f1061045b57610100808354040283529160200191610486565b820191906000526020600020905b81548152906001019060200180831161046957829003601f168201915b50505050508152602001600182018054600181600116156101000203166002900480601f0160208091040260200160405190810160405280929190818152602001828054600181600116156101000203166002900480156105285780601f106104fd57610100808354040283529160200191610528565b820191906000526020600020905b81548152906001019060200180831161050b57829003601f168201915b505050505081525050905089565b60036020528060005260406000206000915090508060000154908060010154908060020154908060030154908060040154908060050154908060060160009054906101000a900473ffffffffffffffffffffffffffffffffffffffff16908060070160009054906101000a900473ffffffffffffffffffffffffffffffffffffffff16908060070160149054906101000a900460ff16905089565b6001602052806000526040600020600091509050806000018054600181600116156101000203166002900480601f01602080910402602001604051908101604052809291908181526020018280546001816001161561010002031660029004801561067d5780601f106106525761010080835404028352916020019161067d565b820191906000526020600020905b81548152906001019060200180831161066057829003601f168201915b505050505090806001018054600181600116156101000203166002900480601f01602080910402602001604051908101604052809291908181526020018280546001816001161561010002031660029004801561071b5780601f106106f05761010080835404028352916020019161071b565b820191906000526020600020905b8154815290600101906020018083116106fe57829003601f168201915b505050505090806002018054600181600116156101000203166002900480601f0160208091040260200160405190810160405280929190818152602001828054600181600116156101000203166002900480156107b95780601f1061078e576101008083540402835291602001916107b9565b820191906000526020600020905b81548152906001019060200180831161079c57829003601f168201915b5050505050905083565b60008089511115156107d457600080fd5b600086511115156107e457600080fd5b6107fa600160005461104390919063ffffffff16565b60008190555060008860ff16600481111561081157fe5b90506101406040519081016040528060005481526020018b815260200182600481111561083a57fe5b81526020018981526020018881526020013373ffffffffffffffffffffffffffffffffffffffff168152602001600081526020018781526020018660ff16815260200160408051908101604052808781526020018681525081525060026000548154811015156108a657fe5b90600052602060002090600b02016000820151816000015560208201518160010190805190602001906108da929190611061565b5060408201518160020160006101000a81548160ff021916908360048111156108ff57fe5b021790555060608201518160030190805190602001906109209291906110e1565b50608082015181600401908051906020019061093d929190611061565b5060a08201518160050160006101000a81548173ffffffffffffffffffffffffffffffffffffffff021916908373ffffffffffffffffffffffffffffffffffffffff16021790555060c0820151816006015560e082015181600701556101008201518160080160006101000a81548160ff021916908360ff1602179055506101208201518160090160008201518160000190805190602001906109e1929190611061565b5060208201518160010190805190602001906109fe929190611061565b5050509050507f6bc6c5b765e309d60c416ff0f90e67d7fa30045c0d1ffee1ad147ffd9a35e96d6000548b83338a604051610a3d959493929190611910565b60405180910390a1600191505098975050505050505050565b6000808451111515610a6757600080fd5b60008351111515610a7757600080fd5b60008251111515610a8757600080fd5b60606040519081016040528085815260200184815260200183815250600160003373ffffffffffffffffffffffffffffffffffffffff1673ffffffffffffffffffffffffffffffffffffffff1681526020019081526020016000206000820151816000019080519060200190610afe929190611061565b506020820151816001019080519060200190610b1b929190611061565b506040820151816002019080519060200190610b38929190611061565b509050503373ffffffffffffffffffffffffffffffffffffffff167fce1251d1b17b8713067ad8d469b75afb6da6f16ccb9ae5e18c5ca4cb6181eaa8858585604051610b869392919061185d565b60405180910390a2600190509392505050565b60005481565b60606002805480602002602001604051908101604052809291908181526020016000905b8282101561103a57838290600052602060002090600b0201610140604051908101604052908160008201548152602001600182018054600181600116156101000203166002900480601f016020809104026020016040519081016040528092919081815260200182805460018160011615610100020316600290048015610c8b5780601f10610c6057610100808354040283529160200191610c8b565b820191906000526020600020905b815481529060010190602001808311610c6e57829003601f168201915b505050505081526020016002820160009054906101000a900460ff166004811115610cb257fe5b6004811115610cbd57fe5b815260200160038201805480602002602001604051908101604052809291908181526020016000905b82821015610da2578382906000526020600020018054600181600116156101000203166002900480601f016020809104026020016040519081016040528092919081815260200182805460018160011615610100020316600290048015610d8e5780601f10610d6357610100808354040283529160200191610d8e565b820191906000526020600020905b815481529060010190602001808311610d7157829003601f168201915b505050505081526020019060010190610ce6565b505050508152602001600482018054600181600116156101000203166002900480601f016020809104026020016040519081016040528092919081815260200182805460018160011615610100020316600290048015610e435780601f10610e1857610100808354040283529160200191610e43565b820191906000526020600020905b815481529060010190602001808311610e2657829003601f168201915b505050505081526020016005820160009054906101000a900473ffffffffffffffffffffffffffffffffffffffff1673ffffffffffffffffffffffffffffffffffffffff1673ffffffffffffffffffffffffffffffffffffffff16815260200160068201548152602001600782015481526020016008820160009054906101000a900460ff1660ff1660ff16815260200160098201604080519081016040529081600082018054600181600116156101000203166002900480601f016020809104026020016040519081016040528092919081815260200182805460018160011615610100020316600290048015610f7c5780601f10610f5157610100808354040283529160200191610f7c565b820191906000526020600020905b815481529060010190602001808311610f5f57829003601f168201915b50505050508152602001600182018054600181600116156101000203166002900480601f01602080910402602001604051908101604052809291908181526020018280546001816001161561010002031660029004801561101e5780601f10610ff35761010080835404028352916020019161101e565b820191906000526020600020905b81548152906001019060200180831161100157829003601f168201915b5050505050815250508152505081526020019060010190610bc3565b50505050905090565b600080828401905083811015151561105757fe5b8091505092915050565b828054600181600116156101000203166002900490600052602060002090601f016020900481019282601f106110a257805160ff19168380011785556110d0565b828001600101855582156110d0579182015b828111156110cf5782518255916020019190600101906110b4565b5b5090506110dd9190611141565b5090565b828054828255906000526020600020908101928215611130579160200282015b8281111561112f57825182908051906020019061111f929190611061565b5091602001919060010190611101565b5b50905061113d9190611166565b5090565b61116391905b8082111561115f576000816000905550600101611147565b5090565b90565b61118f91905b8082111561118b57600081816111829190611192565b5060010161116c565b5090565b90565b50805460018160011615610100020316600290046000825580601f106111b857506111d7565b601f0160209004906000526020600020908101906111d69190611141565b5b50565b60006111e68235611c27565b905092915050565b600082601f830112151561120157600080fd5b813561121461120f82611ac6565b611a99565b9150818183526020840193506020810190508360005b8381101561125a57813586016112408882611264565b84526020840193506020830192505060018101905061122a565b5050505092915050565b600082601f830112151561127757600080fd5b813561128a61128582611aee565b611a99565b915080825260208301602083018583830111156112a657600080fd5b6112b1838284611c74565b50505092915050565b600082601f83011215156112cd57600080fd5b81356112e06112db82611b1a565b611a99565b915080825260208301602083018583830111156112fc57600080fd5b611307838284611c74565b50505092915050565b600061131c8235611c39565b905092915050565b60006113308235611c43565b905092915050565b60006020828403121561134a57600080fd5b6000611358848285016111da565b91505092915050565b60008060006060848603121561137657600080fd5b600084013567ffffffffffffffff81111561139057600080fd5b61139c868287016112ba565b935050602084013567ffffffffffffffff8111156113b957600080fd5b6113c5868287016112ba565b925050604084013567ffffffffffffffff8111156113e257600080fd5b6113ee868287016112ba565b9150509250925092565b600080600080600080600080610100898b03121561141557600080fd5b600089013567ffffffffffffffff81111561142f57600080fd5b61143b8b828c016112ba565b985050602061144c8b828c01611324565b975050604089013567ffffffffffffffff81111561146957600080fd5b6114758b828c016111ee565b965050606089013567ffffffffffffffff81111561149257600080fd5b61149e8b828c016112ba565b95505060806114af8b828c01611310565b94505060a06114c08b828c01611324565b93505060c089013567ffffffffffffffff8111156114dd57600080fd5b6114e98b828c016112ba565b92505060e089013567ffffffffffffffff81111561150657600080fd5b6115128b828c016112ba565b9150509295985092959890939650565b60006020828403121561153457600080fd5b600061154284828501611310565b91505092915050565b61155481611ba6565b82525050565b600061156582611b60565b8084526020840193508360208202850161157e85611b46565b60005b848110156115b7578383038852611599838351611699565b92506115a482611b8c565b9150602088019750600181019050611581565b508196508694505050505092915050565b60006115d382611b6b565b808452602084019350836020820285016115ec85611b53565b60005b84811015611625578383038852611607838351611713565b925061161282611b99565b91506020880197506001810190506115ef565b508196508694505050505092915050565b61163f81611bb8565b82525050565b61164e81611c50565b82525050565b61165d81611c62565b82525050565b600061166e82611b81565b808452611682816020860160208601611c83565b61168b81611cb6565b602085010191505092915050565b60006116a482611b76565b8084526116b8816020860160208601611c83565b6116c181611cb6565b602085010191505092915050565b600060408301600083015184820360008601526116ec8282611699565b915050602083015184820360208601526117068282611699565b9150508091505092915050565b60006101408301600083015161172c6000860182611802565b50602083015184820360208601526117448282611699565b91505060408301516117596040860182611654565b5060608301518482036060860152611771828261155a565b9150506080830151848203608086015261178b8282611699565b91505060a08301516117a060a086018261154b565b5060c08301516117b360c0860182611802565b5060e08301516117c660e0860182611802565b506101008301516117db610100860182611811565b506101208301518482036101208601526117f582826116cf565b9150508091505092915050565b61180b81611c10565b82525050565b61181a81611c1a565b82525050565b6000602082019050818103600083015261183a81846115c8565b905092915050565b60006020820190506118576000830184611636565b92915050565b600060608201905081810360008301526118778186611663565b9050818103602083015261188b8185611663565b9050818103604083015261189f8184611663565b9050949350505050565b600060608201905081810360008301526118c38186611699565b905081810360208301526118d78185611699565b905081810360408301526118eb8184611699565b9050949350505050565b600060208201905061190a6000830184611802565b92915050565b600060a0820190506119256000830188611802565b81810360208301526119378187611663565b90506119466040830186611654565b611953606083018561154b565b6119606080830184611802565b9695505050505050565b600061012082019050611980600083018c611802565b8181036020830152611992818b611699565b90506119a1604083018a611654565b81810360608301526119b38189611699565b90506119c2608083018861154b565b6119cf60a0830187611802565b6119dc60c0830186611802565b6119e960e0830185611811565b8181036101008301526119fc81846116cf565b90509a9950505050505050505050565b600061012082019050611a22600083018c611802565b611a2f602083018b611802565b611a3c604083018a611802565b611a496060830189611802565b611a566080830188611802565b611a6360a0830187611802565b611a7060c083018661154b565b611a7d60e083018561154b565b611a8b610100830184611645565b9a9950505050505050505050565b6000604051905081810181811067ffffffffffffffff82111715611abc57600080fd5b8060405250919050565b600067ffffffffffffffff821115611add57600080fd5b602082029050602081019050919050565b600067ffffffffffffffff821115611b0557600080fd5b601f19601f8301169050602081019050919050565b600067ffffffffffffffff821115611b3157600080fd5b601f19601f8301169050602081019050919050565b6000602082019050919050565b6000602082019050919050565b600081519050919050565b600081519050919050565b600081519050919050565b600081519050919050565b6000602082019050919050565b6000602082019050919050565b6000611bb182611bf0565b9050919050565b60008115159050919050565b6000600382101515611bd257fe5b819050919050565b6000600582101515611be857fe5b819050919050565b600073ffffffffffffffffffffffffffffffffffffffff82169050919050565b6000819050919050565b600060ff82169050919050565b6000611c3282611bf0565b9050919050565b6000819050919050565b600060ff82169050919050565b6000611c5b82611bc4565b9050919050565b6000611c6d82611bda565b9050919050565b82818337600083830152505050565b60005b83811015611ca1578082015181840152602081019050611c86565b83811115611cb0576000848401525b50505050565b6000601f19601f830116905091905056fea265627a7a72305820a7f07dc5ec93e889f00842498f3381b2e80b19715c779dd68bbf3be23cf921dd6c6578706572696d656e74616cf50037",
  "source": "pragma solidity ^0.5.0;\npragma experimental ABIEncoderV2;\n\nimport \"./safemath.sol\";\n\ncontract HomeStay {\n    using SafeMath for uint256;\n\n    uint public roomCount;\n\n    constructor() public {\n        roomCount = 0;\n    }\n\n    mapping(address => Landlord) public landLordDetails;\n    Room[] public rooms;\n    // mapping(uint => Room) public rooms;\n    mapping (uint=>Booking) public bookings;\n\n    struct Landlord {\n        string name;\n        string email;\n        string contactNumber;\n    }\n\n    event LandlordCreated (\n        address indexed _owner,\n        string _name,\n        string _email,\n        string _contactNumber\n    );\n\n    enum RoomType {Bungalow, Villa, Apartment, Penthouse, House}\n\n    struct Location {\n        string latitude;\n        string longitude;\n    }\n\n    struct Room {\n        uint id;\n        string roomName;\n        RoomType roomType;\n        string[] imgHashes;\n        string description;\n        address payable owner;\n        uint upVotes;\n        uint rentPerDay;    //in wei, in frontend - ether\n        uint8 numberOfGuestsCanStay;\n        Location location;\n    }\n\n    event RoomCreated (\n        uint roomCount,\n        string _roomName,\n        RoomType _roomType,\n        address payable _owner,\n        uint _rentPerDay\n    );\n\n    enum BookingStatus { Booked , Refunded, CheckedIn}\n\n    struct Booking {\n        uint bookingId;\n        uint roomId;\n        uint startTime;\n        uint endTime;\n        uint bookedAt;\n        uint amount;\n        address payable owner;\n        address payable tenant;\n        BookingStatus bookingStatus;\n    }\n\n    event Booked (\n        uint _bookingId,\n        uint _roomId,\n        address payable indexed _owner,\n        address payable indexed _tenant,\n        BookingStatus _bookingStatus\n    );\n\n    function createLandlordAccount(string memory _name, string memory _email, string memory _contactNumber) public returns(bool) {\n        require(bytes(_name).length > 0);\n        require(bytes(_email).length > 0);\n        require(bytes(_contactNumber).length > 0);\n        landLordDetails[msg.sender] = Landlord(_name, _email, _contactNumber);\n        emit LandlordCreated(msg.sender, _name, _email, _contactNumber);\n        return true;\n    }\n\n    function createRoom(string memory _roomName, uint8 _roomType, string[] memory _imgHashes, string memory _description, uint _rentPerDay, uint8 _numberOfGuestsCanStay, string memory _lat, string memory _long) public returns(bool){\n        require(bytes(_roomName).length > 0);\n        require(bytes(_description).length > 0);\n        roomCount = roomCount.add(1);\n        RoomType ourRoomType = RoomType(_roomType);\n        rooms[roomCount] = Room(roomCount, _roomName, ourRoomType, _imgHashes, _description, msg.sender, 0, _rentPerDay, _numberOfGuestsCanStay, Location(_lat, _long));\n        emit RoomCreated(roomCount ,_roomName, ourRoomType, msg.sender, _rentPerDay);\n        return true;\n    }\n\n    function getAllRooms() public view returns(Room[] memory) {\n        return rooms;\n    }\n\n    // function getRoomsOfOwner()\n\n    // function bookRoom()\n}",
  "sourcePath": "/home/yaswanth/my_projects/homeStay/src/contracts/HomeStay.sol",
  "compiler": {
    "name": "solc",
    "version": "0.5.0+commit.1d4f565a.Emscripten.clang"
  },
  "schemaVersion": "3.0.1",
  "updatedAt": "2022-06-10T13:39:50.100Z",
  "devdoc": {
    "methods": {}
  },
  "userdoc": {
    "methods": {}
  }
}