{
  "contractName": "HomeStay",
  "abi": [
    {
      "constant": true,
      "inputs": [
        {
          "name": "",
          "type": "uint256"
        }
      ],
      "name": "rooms",
      "outputs": [
        {
          "name": "roomId",
          "type": "uint256"
        },
        {
          "name": "roomName",
          "type": "string"
        },
        {
          "name": "roomType",
          "type": "uint8"
        },
        {
          "name": "imgHashes",
          "type": "string"
        },
        {
          "name": "description",
          "type": "string"
        },
        {
          "name": "owner",
          "type": "address"
        },
        {
          "name": "upVotes",
          "type": "uint256"
        },
        {
          "name": "rentPerDay",
          "type": "uint256"
        },
        {
          "name": "numberOfGuestsCanStay",
          "type": "uint8"
        },
        {
          "components": [
            {
              "name": "latitude",
              "type": "string"
            },
            {
              "name": "longitude",
              "type": "string"
            }
          ],
          "name": "location",
          "type": "tuple"
        }
      ],
      "payable": false,
      "stateMutability": "view",
      "type": "function",
      "signature": "0x1bae0ac8"
    },
    {
      "constant": true,
      "inputs": [
        {
          "name": "",
          "type": "uint256"
        }
      ],
      "name": "bookings",
      "outputs": [
        {
          "name": "bookingId",
          "type": "uint256"
        },
        {
          "name": "roomId",
          "type": "uint256"
        },
        {
          "name": "startTime",
          "type": "uint256"
        },
        {
          "name": "endTime",
          "type": "uint256"
        },
        {
          "name": "bookedAt",
          "type": "uint256"
        },
        {
          "name": "amount",
          "type": "uint256"
        },
        {
          "name": "totalDays",
          "type": "uint256"
        },
        {
          "name": "owner",
          "type": "address"
        },
        {
          "name": "tenant",
          "type": "address"
        },
        {
          "name": "bookingStatus",
          "type": "uint8"
        }
      ],
      "payable": false,
      "stateMutability": "view",
      "type": "function",
      "signature": "0x1dab301e"
    },
    {
      "constant": true,
      "inputs": [],
      "name": "bookingCount",
      "outputs": [
        {
          "name": "",
          "type": "uint256"
        }
      ],
      "payable": false,
      "stateMutability": "view",
      "type": "function",
      "signature": "0x6d759172"
    },
    {
      "constant": true,
      "inputs": [
        {
          "name": "",
          "type": "address"
        }
      ],
      "name": "landLordDetails",
      "outputs": [
        {
          "name": "name",
          "type": "string"
        },
        {
          "name": "email",
          "type": "string"
        },
        {
          "name": "contactNumber",
          "type": "string"
        }
      ],
      "payable": false,
      "stateMutability": "view",
      "type": "function",
      "signature": "0x86739d43"
    },
    {
      "constant": true,
      "inputs": [],
      "name": "roomCount",
      "outputs": [
        {
          "name": "",
          "type": "uint256"
        }
      ],
      "payable": false,
      "stateMutability": "view",
      "type": "function",
      "signature": "0xdf93a4e3"
    },
    {
      "inputs": [],
      "payable": false,
      "stateMutability": "nonpayable",
      "type": "constructor",
      "signature": "constructor"
    },
    {
      "anonymous": false,
      "inputs": [
        {
          "indexed": true,
          "name": "_owner",
          "type": "address"
        },
        {
          "indexed": false,
          "name": "_name",
          "type": "string"
        },
        {
          "indexed": false,
          "name": "_email",
          "type": "string"
        },
        {
          "indexed": false,
          "name": "_contactNumber",
          "type": "string"
        }
      ],
      "name": "LandlordCreated",
      "type": "event",
      "signature": "0xce1251d1b17b8713067ad8d469b75afb6da6f16ccb9ae5e18c5ca4cb6181eaa8"
    },
    {
      "anonymous": false,
      "inputs": [
        {
          "indexed": false,
          "name": "roomCount",
          "type": "uint256"
        },
        {
          "indexed": false,
          "name": "_roomName",
          "type": "string"
        },
        {
          "indexed": false,
          "name": "_roomType",
          "type": "uint8"
        },
        {
          "indexed": false,
          "name": "_owner",
          "type": "address"
        },
        {
          "indexed": false,
          "name": "_rentPerDay",
          "type": "uint256"
        }
      ],
      "name": "RoomCreated",
      "type": "event",
      "signature": "0x6bc6c5b765e309d60c416ff0f90e67d7fa30045c0d1ffee1ad147ffd9a35e96d"
    },
    {
      "anonymous": false,
      "inputs": [
        {
          "indexed": false,
          "name": "_bookingId",
          "type": "uint256"
        },
        {
          "indexed": false,
          "name": "_roomId",
          "type": "uint256"
        },
        {
          "indexed": true,
          "name": "_owner",
          "type": "address"
        },
        {
          "indexed": true,
          "name": "_tenant",
          "type": "address"
        },
        {
          "indexed": false,
          "name": "_bookingStatus",
          "type": "uint8"
        }
      ],
      "name": "Booked",
      "type": "event",
      "signature": "0x90d3eb3cc72f76c87893095fe8ea9bbfedc0b422e430ad2bb4708467991eb279"
    },
    {
      "anonymous": false,
      "inputs": [
        {
          "indexed": false,
          "name": "_bookingId",
          "type": "uint256"
        },
        {
          "indexed": false,
          "name": "_roomId",
          "type": "uint256"
        },
        {
          "indexed": true,
          "name": "_owner",
          "type": "address"
        },
        {
          "indexed": true,
          "name": "_tenant",
          "type": "address"
        },
        {
          "indexed": false,
          "name": "_bookingStatus",
          "type": "uint8"
        }
      ],
      "name": "BookingCancelled",
      "type": "event",
      "signature": "0x1576e22754024919b520ba328aab237062583023a5f71482b3694c187eb5dee8"
    },
    {
      "constant": false,
      "inputs": [
        {
          "name": "_name",
          "type": "string"
        },
        {
          "name": "_email",
          "type": "string"
        },
        {
          "name": "_contactNumber",
          "type": "string"
        }
      ],
      "name": "createLandlordAccount",
      "outputs": [
        {
          "name": "",
          "type": "bool"
        }
      ],
      "payable": false,
      "stateMutability": "nonpayable",
      "type": "function",
      "signature": "0xb3e75a34"
    },
    {
      "constant": false,
      "inputs": [
        {
          "name": "_roomName",
          "type": "string"
        },
        {
          "name": "_roomType",
          "type": "uint8"
        },
        {
          "name": "_imgHashes",
          "type": "string"
        },
        {
          "name": "_description",
          "type": "string"
        },
        {
          "name": "_rentPerDay",
          "type": "uint256"
        },
        {
          "name": "_numberOfGuestsCanStay",
          "type": "uint8"
        },
        {
          "name": "_lat",
          "type": "string"
        },
        {
          "name": "_long",
          "type": "string"
        }
      ],
      "name": "createRoom",
      "outputs": [
        {
          "name": "",
          "type": "bool"
        }
      ],
      "payable": false,
      "stateMutability": "nonpayable",
      "type": "function",
      "signature": "0x7dd5e30e"
    },
    {
      "constant": true,
      "inputs": [],
      "name": "getAllRooms",
      "outputs": [
        {
          "components": [
            {
              "name": "roomId",
              "type": "uint256"
            },
            {
              "name": "roomName",
              "type": "string"
            },
            {
              "name": "roomType",
              "type": "uint8"
            },
            {
              "name": "imgHashes",
              "type": "string"
            },
            {
              "name": "description",
              "type": "string"
            },
            {
              "name": "owner",
              "type": "address"
            },
            {
              "name": "upVotes",
              "type": "uint256"
            },
            {
              "name": "rentPerDay",
              "type": "uint256"
            },
            {
              "name": "numberOfGuestsCanStay",
              "type": "uint8"
            },
            {
              "components": [
                {
                  "name": "latitude",
                  "type": "string"
                },
                {
                  "name": "longitude",
                  "type": "string"
                }
              ],
              "name": "location",
              "type": "tuple"
            }
          ],
          "name": "",
          "type": "tuple[]"
        }
      ],
      "payable": false,
      "stateMutability": "view",
      "type": "function",
      "signature": "0xf794cf2d"
    },
    {
      "constant": false,
      "inputs": [
        {
          "name": "_roomId",
          "type": "uint256"
        },
        {
          "name": "_startTime",
          "type": "uint256"
        },
        {
          "name": "_endTime",
          "type": "uint256"
        },
        {
          "name": "_owner",
          "type": "address"
        },
        {
          "name": "_bookingStatus",
          "type": "uint8"
        }
      ],
      "name": "bookRoom",
      "outputs": [
        {
          "name": "",
          "type": "bool"
        }
      ],
      "payable": true,
      "stateMutability": "payable",
      "type": "function",
      "signature": "0x39f8f4fc"
    },
    {
      "constant": true,
      "inputs": [],
      "name": "getAllBookings",
      "outputs": [
        {
          "components": [
            {
              "name": "bookingId",
              "type": "uint256"
            },
            {
              "name": "roomId",
              "type": "uint256"
            },
            {
              "name": "startTime",
              "type": "uint256"
            },
            {
              "name": "endTime",
              "type": "uint256"
            },
            {
              "name": "bookedAt",
              "type": "uint256"
            },
            {
              "name": "amount",
              "type": "uint256"
            },
            {
              "name": "totalDays",
              "type": "uint256"
            },
            {
              "name": "owner",
              "type": "address"
            },
            {
              "name": "tenant",
              "type": "address"
            },
            {
              "name": "bookingStatus",
              "type": "uint8"
            }
          ],
          "name": "",
          "type": "tuple[]"
        }
      ],
      "payable": false,
      "stateMutability": "view",
      "type": "function",
      "signature": "0x4245f2fe"
    },
    {
      "constant": false,
      "inputs": [
        {
          "name": "_bookingId",
          "type": "uint256"
        }
      ],
      "name": "cancelBooking",
      "outputs": [
        {
          "name": "",
          "type": "bool"
        }
      ],
      "payable": true,
      "stateMutability": "payable",
      "type": "function",
      "signature": "0x0dca825e"
    }
  ],
  "bytecode": "0x608060405234801561001057600080fd5b506000808190555060006001819055506128028061002f6000396000f3fe6080604052600436106100af576000357c0100000000000000000000000000000000000000000000000000000000900463ffffffff1680630dca825e146100b45780631bae0ac8146100e45780631dab301e1461012a57806339f8f4fc146101705780634245f2fe146101a05780636d759172146101cb5780637dd5e30e146101f657806386739d4314610233578063b3e75a3414610272578063df93a4e3146102af578063f794cf2d146102da575b600080fd5b6100ce60048036036100c99190810190611eb6565b610305565b6040516100db9190612329565b60405180910390f35b3480156100f057600080fd5b5061010b60048036036101069190810190611eb6565b6106e2565b6040516101219a99989796959493929190612451565b60405180910390f35b34801561013657600080fd5b50610151600480360361014c9190810190611eb6565b610a95565b6040516101679a99989796959493929190612540565b60405180910390f35b61018a60048036036101859190810190611edf565b610b45565b6040516101979190612329565b60405180910390f35b3480156101ac57600080fd5b506101b5610fa4565b6040516101c291906122e5565b60405180910390f35b3480156101d757600080fd5b506101e0611124565b6040516101ed91906123dc565b60405180910390f35b34801561020257600080fd5b5061021d60048036036102189190810190611d8c565b61112a565b60405161022a9190612329565b60405180910390f35b34801561023f57600080fd5b5061025a60048036036102559190810190611ccc565b6113cb565b60405161026993929190612390565b60405180910390f35b34801561027e57600080fd5b5061029960048036036102949190810190611cf5565b6115bd565b6040516102a69190612329565b60405180910390f35b3480156102bb57600080fd5b506102c4611700565b6040516102d191906123dc565b60405180910390f35b3480156102e657600080fd5b506102ef611706565b6040516102fc9190612307565b60405180910390f35b60006001548210151561031757600080fd5b6000600281111561032457fe5b60048381548110151561033357fe5b906000526020600020906009020160080160149054906101000a900460ff16600281111561035d57fe5b14151561036957600080fd5b4260048381548110151561037957fe5b90600052602060002090600902016002015411151561039757600080fd5b3373ffffffffffffffffffffffffffffffffffffffff166004838154811015156103bd57fe5b906000526020600020906009020160080160009054906101000a900473ffffffffffffffffffffffffffffffffffffffff1673ffffffffffffffffffffffffffffffffffffffff1614151561041157600080fd5b6001600281111561041e57fe5b60048381548110151561042d57fe5b906000526020600020906009020160080160149054906101000a900460ff16600281111561045757fe5b5050600060048381548110151561046a57fe5b90600052602060002090600902016004015460048481548110151561048b57fe5b906000526020600020906009020160020154036004848154811015156104ad57fe5b9060005260206000209060090201600501546064426004878154811015156104d157fe5b9060005260206000209060090201600201540302028115156104ef57fe5b0490503373ffffffffffffffffffffffffffffffffffffffff166108fc829081150290604051600060405180830381858888f19350505050158015610538573d6000803e3d6000fd5b5060048381548110151561054857fe5b906000526020600020906009020160070160009054906101000a900473ffffffffffffffffffffffffffffffffffffffff1673ffffffffffffffffffffffffffffffffffffffff166108fc826004868154811015156105a357fe5b906000526020600020906009020160050154039081150290604051600060405180830381858888f193505050501580156105e1573d6000803e3d6000fd5b503373ffffffffffffffffffffffffffffffffffffffff1660048481548110151561060857fe5b906000526020600020906009020160070160009054906101000a900473ffffffffffffffffffffffffffffffffffffffff1673ffffffffffffffffffffffffffffffffffffffff167f1576e22754024919b520ba328aab237062583023a5f71482b3694c187eb5dee88560048781548110151561068157fe5b9060005260206000209060090201600101546004888154811015156106a257fe5b906000526020600020906009020160080160149054906101000a900460ff166040516106d093929190612509565b60405180910390a36001915050919050565b6003818154811015156106f157fe5b90600052602060002090600b0201600091509050806000015490806001018054600181600116156101000203166002900480601f0160208091040260200160405190810160405280929190818152602001828054600181600116156101000203166002900480156107a35780601f10610778576101008083540402835291602001916107a3565b820191906000526020600020905b81548152906001019060200180831161078657829003601f168201915b5050505050908060020160009054906101000a900460ff1690806003018054600181600116156101000203166002900480601f0160208091040260200160405190810160405280929190818152602001828054600181600116156101000203166002900480156108545780601f1061082957610100808354040283529160200191610854565b820191906000526020600020905b81548152906001019060200180831161083757829003601f168201915b505050505090806004018054600181600116156101000203166002900480601f0160208091040260200160405190810160405280929190818152602001828054600181600116156101000203166002900480156108f25780601f106108c7576101008083540402835291602001916108f2565b820191906000526020600020905b8154815290600101906020018083116108d557829003601f168201915b5050505050908060050160009054906101000a900473ffffffffffffffffffffffffffffffffffffffff16908060060154908060070154908060080160009054906101000a900460ff169080600901604080519081016040529081600082018054600181600116156101000203166002900480601f0160208091040260200160405190810160405280929190818152602001828054600181600116156101000203166002900480156109e55780601f106109ba576101008083540402835291602001916109e5565b820191906000526020600020905b8154815290600101906020018083116109c857829003601f168201915b50505050508152602001600182018054600181600116156101000203166002900480601f016020809104026020016040519081016040528092919081815260200182805460018160011615610100020316600290048015610a875780601f10610a5c57610100808354040283529160200191610a87565b820191906000526020600020905b815481529060010190602001808311610a6a57829003601f168201915b50505050508152505090508a565b600481815481101515610aa457fe5b90600052602060002090600902016000915090508060000154908060010154908060020154908060030154908060040154908060050154908060060154908060070160009054906101000a900473ffffffffffffffffffffffffffffffffffffffff16908060080160009054906101000a900473ffffffffffffffffffffffffffffffffffffffff16908060080160149054906101000a900460ff1690508a565b6000805486101515610b5657600080fd5b8273ffffffffffffffffffffffffffffffffffffffff16600387815481101515610b7c57fe5b90600052602060002090600b020160050160009054906101000a900473ffffffffffffffffffffffffffffffffffffffff1673ffffffffffffffffffffffffffffffffffffffff16141515610bd057600080fd5b60008090505b600154811015610cf25760016002811115610bed57fe5b600482815481101515610bfc57fe5b906000526020600020906009020160080160149054906101000a900460ff166002811115610c2657fe5b141515610ce55785600482815481101515610c3d57fe5b906000526020600020906009020160020154111515610c8a5784600482815481101515610c6657fe5b90600052602060002090600902016003015411151515610c8557600080fd5b610ce4565b85600482815481101515610c9a57fe5b906000526020600020906009020160020154101515610ce35784600482815481101515610cc357fe5b90600052602060002090600902016003015410151515610ce257600080fd5b5b5b5b8080600101915050610bd6565b5060006018603c80888803811515610d0657fe5b04811515610d1057fe5b04811515610d1a57fe5b04905034600388815481101515610d2d57fe5b90600052602060002090600b0201600701548202141515610d4d57600080fd5b60008360ff166002811115610d5e57fe5b905060046101406040519081016040528060015481526020018a81526020018981526020018881526020014281526020013481526020018481526020018773ffffffffffffffffffffffffffffffffffffffff1681526020013373ffffffffffffffffffffffffffffffffffffffff168152602001836002811115610ddf57fe5b81525090806001815401808255809150509060018203906000526020600020906009020160009091929091909150600082015181600001556020820151816001015560408201518160020155606082015181600301556080820151816004015560a0820151816005015560c0820151816006015560e08201518160070160006101000a81548173ffffffffffffffffffffffffffffffffffffffff021916908373ffffffffffffffffffffffffffffffffffffffff1602179055506101008201518160080160006101000a81548173ffffffffffffffffffffffffffffffffffffffff021916908373ffffffffffffffffffffffffffffffffffffffff1602179055506101208201518160080160146101000a81548160ff02191690836002811115610f0757fe5b02179055505050503373ffffffffffffffffffffffffffffffffffffffff168573ffffffffffffffffffffffffffffffffffffffff167f90d3eb3cc72f76c87893095fe8ea9bbfedc0b422e430ad2bb4708467991eb2796001548b85604051610f7293929190612509565b60405180910390a3610f8f60018054611b6390919063ffffffff16565b60018190555060019250505095945050505050565b60606004805480602002602001604051908101604052809291908181526020016000905b8282101561111b57838290600052602060002090600902016101406040519081016040529081600082015481526020016001820154815260200160028201548152602001600382015481526020016004820154815260200160058201548152602001600682015481526020016007820160009054906101000a900473ffffffffffffffffffffffffffffffffffffffff1673ffffffffffffffffffffffffffffffffffffffff1673ffffffffffffffffffffffffffffffffffffffff1681526020016008820160009054906101000a900473ffffffffffffffffffffffffffffffffffffffff1673ffffffffffffffffffffffffffffffffffffffff1673ffffffffffffffffffffffffffffffffffffffff1681526020016008820160149054906101000a900460ff1660028111156110fd57fe5b600281111561110857fe5b8152505081526020019060010190610fc8565b50505050905090565b60015481565b600080895111151561113b57600080fd5b6000865111151561114b57600080fd5b60008860ff16600481111561115c57fe5b905060036101406040519081016040528060005481526020018c815260200183600481111561118757fe5b81526020018a81526020018981526020013373ffffffffffffffffffffffffffffffffffffffff168152602001600081526020018881526020018760ff1681526020016040805190810160405280888152602001878152508152509080600181540180825580915050906001820390600052602060002090600b020160009091929091909150600082015181600001556020820151816001019080519060200190611233929190611b81565b5060408201518160020160006101000a81548160ff0219169083600481111561125857fe5b02179055506060820151816003019080519060200190611279929190611b81565b506080820151816004019080519060200190611296929190611b81565b5060a08201518160050160006101000a81548173ffffffffffffffffffffffffffffffffffffffff021916908373ffffffffffffffffffffffffffffffffffffffff16021790555060c0820151816006015560e082015181600701556101008201518160080160006101000a81548160ff021916908360ff16021790555061012082015181600901600082015181600001908051906020019061133a929190611b81565b506020820151816001019080519060200190611357929190611b81565b5050505050506113736001600054611b6390919063ffffffff16565b6000819055507f6bc6c5b765e309d60c416ff0f90e67d7fa30045c0d1ffee1ad147ffd9a35e96d6000548b83338a6040516113b29594939291906123f7565b60405180910390a1600191505098975050505050505050565b6002602052806000526040600020600091509050806000018054600181600116156101000203166002900480601f0160208091040260200160405190810160405280929190818152602001828054600181600116156101000203166002900480156114775780601f1061144c57610100808354040283529160200191611477565b820191906000526020600020905b81548152906001019060200180831161145a57829003601f168201915b505050505090806001018054600181600116156101000203166002900480601f0160208091040260200160405190810160405280929190818152602001828054600181600116156101000203166002900480156115155780601f106114ea57610100808354040283529160200191611515565b820191906000526020600020905b8154815290600101906020018083116114f857829003601f168201915b505050505090806002018054600181600116156101000203166002900480601f0160208091040260200160405190810160405280929190818152602001828054600181600116156101000203166002900480156115b35780601f10611588576101008083540402835291602001916115b3565b820191906000526020600020905b81548152906001019060200180831161159657829003601f168201915b5050505050905083565b60008084511115156115ce57600080fd5b600083511115156115de57600080fd5b600082511115156115ee57600080fd5b60606040519081016040528085815260200184815260200183815250600260003373ffffffffffffffffffffffffffffffffffffffff1673ffffffffffffffffffffffffffffffffffffffff1681526020019081526020016000206000820151816000019080519060200190611665929190611b81565b506020820151816001019080519060200190611682929190611b81565b50604082015181600201908051906020019061169f929190611b81565b509050503373ffffffffffffffffffffffffffffffffffffffff167fce1251d1b17b8713067ad8d469b75afb6da6f16ccb9ae5e18c5ca4cb6181eaa88585856040516116ed93929190612344565b60405180910390a2600190509392505050565b60005481565b60606003805480602002602001604051908101604052809291908181526020016000905b82821015611b5a57838290600052602060002090600b0201610140604051908101604052908160008201548152602001600182018054600181600116156101000203166002900480601f0160208091040260200160405190810160405280929190818152602001828054600181600116156101000203166002900480156117f25780601f106117c7576101008083540402835291602001916117f2565b820191906000526020600020905b8154815290600101906020018083116117d557829003601f168201915b505050505081526020016002820160009054906101000a900460ff16600481111561181957fe5b600481111561182457fe5b8152602001600382018054600181600116156101000203166002900480601f0160208091040260200160405190810160405280929190818152602001828054600181600116156101000203166002900480156118c15780601f10611896576101008083540402835291602001916118c1565b820191906000526020600020905b8154815290600101906020018083116118a457829003601f168201915b50505050508152602001600482018054600181600116156101000203166002900480601f0160208091040260200160405190810160405280929190818152602001828054600181600116156101000203166002900480156119635780601f1061193857610100808354040283529160200191611963565b820191906000526020600020905b81548152906001019060200180831161194657829003601f168201915b505050505081526020016005820160009054906101000a900473ffffffffffffffffffffffffffffffffffffffff1673ffffffffffffffffffffffffffffffffffffffff1673ffffffffffffffffffffffffffffffffffffffff16815260200160068201548152602001600782015481526020016008820160009054906101000a900460ff1660ff1660ff16815260200160098201604080519081016040529081600082018054600181600116156101000203166002900480601f016020809104026020016040519081016040528092919081815260200182805460018160011615610100020316600290048015611a9c5780601f10611a7157610100808354040283529160200191611a9c565b820191906000526020600020905b815481529060010190602001808311611a7f57829003601f168201915b50505050508152602001600182018054600181600116156101000203166002900480601f016020809104026020016040519081016040528092919081815260200182805460018160011615610100020316600290048015611b3e5780601f10611b1357610100808354040283529160200191611b3e565b820191906000526020600020905b815481529060010190602001808311611b2157829003601f168201915b505050505081525050815250508152602001906001019061172a565b50505050905090565b6000808284019050838110151515611b7757fe5b8091505092915050565b828054600181600116156101000203166002900490600052602060002090601f016020900481019282601f10611bc257805160ff1916838001178555611bf0565b82800160010185558215611bf0579182015b82811115611bef578251825591602001919060010190611bd4565b5b509050611bfd9190611c01565b5090565b611c2391905b80821115611c1f576000816000905550600101611c07565b5090565b90565b6000611c328235612716565b905092915050565b6000611c468235612728565b905092915050565b600082601f8301121515611c6157600080fd5b8135611c74611c6f82612609565b6125dc565b91508082526020830160208301858383011115611c9057600080fd5b611c9b838284612775565b50505092915050565b6000611cb0823561273a565b905092915050565b6000611cc48235612744565b905092915050565b600060208284031215611cde57600080fd5b6000611cec84828501611c26565b91505092915050565b600080600060608486031215611d0a57600080fd5b600084013567ffffffffffffffff811115611d2457600080fd5b611d3086828701611c4e565b935050602084013567ffffffffffffffff811115611d4d57600080fd5b611d5986828701611c4e565b925050604084013567ffffffffffffffff811115611d7657600080fd5b611d8286828701611c4e565b9150509250925092565b600080600080600080600080610100898b031215611da957600080fd5b600089013567ffffffffffffffff811115611dc357600080fd5b611dcf8b828c01611c4e565b9850506020611de08b828c01611cb8565b975050604089013567ffffffffffffffff811115611dfd57600080fd5b611e098b828c01611c4e565b965050606089013567ffffffffffffffff811115611e2657600080fd5b611e328b828c01611c4e565b9550506080611e438b828c01611ca4565b94505060a0611e548b828c01611cb8565b93505060c089013567ffffffffffffffff811115611e7157600080fd5b611e7d8b828c01611c4e565b92505060e089013567ffffffffffffffff811115611e9a57600080fd5b611ea68b828c01611c4e565b9150509295985092959890939650565b600060208284031215611ec857600080fd5b6000611ed684828501611ca4565b91505092915050565b600080600080600060a08688031215611ef757600080fd5b6000611f0588828901611ca4565b9550506020611f1688828901611ca4565b9450506040611f2788828901611ca4565b9350506060611f3888828901611c3a565b9250506080611f4988828901611cb8565b9150509295509295909350565b611f5f81612695565b82525050565b6000611f708261264f565b808452602084019350611f8283612635565b60005b82811015611fb557611f988683516120c8565b611fa18261267b565b915061014086019550600181019050611f85565b50849250505092915050565b6000611fcc8261265a565b80845260208401935083602082028501611fe585612642565b60005b8481101561201e5783830388526120008383516121d8565b925061200b82612688565b9150602088019750600181019050611fe8565b508196508694505050505092915050565b612038816126a7565b82525050565b61204781612751565b82525050565b61205681612763565b82525050565b600061206782612670565b80845261207b816020860160208601612784565b612084816127b7565b602085010191505092915050565b600061209d82612665565b8084526120b1816020860160208601612784565b6120ba816127b7565b602085010191505092915050565b610140820160008201516120df60008501826122c7565b5060208201516120f260208501826122c7565b50604082015161210560408501826122c7565b50606082015161211860608501826122c7565b50608082015161212b60808501826122c7565b5060a082015161213e60a08501826122c7565b5060c082015161215160c08501826122c7565b5060e082015161216460e0850182611f56565b50610100820151612179610100850182611f56565b5061012082015161218e61012085018261203e565b50505050565b600060408301600083015184820360008601526121b18282612092565b915050602083015184820360208601526121cb8282612092565b9150508091505092915050565b6000610140830160008301516121f160008601826122c7565b50602083015184820360208601526122098282612092565b915050604083015161221e604086018261204d565b50606083015184820360608601526122368282612092565b915050608083015184820360808601526122508282612092565b91505060a083015161226560a0860182611f56565b5060c083015161227860c08601826122c7565b5060e083015161228b60e08601826122c7565b506101008301516122a06101008601826122d6565b506101208301518482036101208601526122ba8282612194565b9150508091505092915050565b6122d0816126ff565b82525050565b6122df81612709565b82525050565b600060208201905081810360008301526122ff8184611f65565b905092915050565b600060208201905081810360008301526123218184611fc1565b905092915050565b600060208201905061233e600083018461202f565b92915050565b6000606082019050818103600083015261235e818661205c565b90508181036020830152612372818561205c565b90508181036040830152612386818461205c565b9050949350505050565b600060608201905081810360008301526123aa8186612092565b905081810360208301526123be8185612092565b905081810360408301526123d28184612092565b9050949350505050565b60006020820190506123f160008301846122c7565b92915050565b600060a08201905061240c60008301886122c7565b818103602083015261241e818761205c565b905061242d604083018661204d565b61243a6060830185611f56565b61244760808301846122c7565b9695505050505050565b600061014082019050612467600083018d6122c7565b8181036020830152612479818c612092565b9050612488604083018b61204d565b818103606083015261249a818a612092565b905081810360808301526124ae8189612092565b90506124bd60a0830188611f56565b6124ca60c08301876122c7565b6124d760e08301866122c7565b6124e56101008301856122d6565b8181036101208301526124f88184612194565b90509b9a5050505050505050505050565b600060608201905061251e60008301866122c7565b61252b60208301856122c7565b612538604083018461203e565b949350505050565b600061014082019050612556600083018d6122c7565b612563602083018c6122c7565b612570604083018b6122c7565b61257d606083018a6122c7565b61258a60808301896122c7565b61259760a08301886122c7565b6125a460c08301876122c7565b6125b160e0830186611f56565b6125bf610100830185611f56565b6125cd61012083018461203e565b9b9a5050505050505050505050565b6000604051905081810181811067ffffffffffffffff821117156125ff57600080fd5b8060405250919050565b600067ffffffffffffffff82111561262057600080fd5b601f19601f8301169050602081019050919050565b6000602082019050919050565b6000602082019050919050565b600081519050919050565b600081519050919050565b600081519050919050565b600081519050919050565b6000602082019050919050565b6000602082019050919050565b60006126a0826126df565b9050919050565b60008115159050919050565b60006003821015156126c157fe5b819050919050565b60006005821015156126d757fe5b819050919050565b600073ffffffffffffffffffffffffffffffffffffffff82169050919050565b6000819050919050565b600060ff82169050919050565b6000612721826126df565b9050919050565b6000612733826126df565b9050919050565b6000819050919050565b600060ff82169050919050565b600061275c826126b3565b9050919050565b600061276e826126c9565b9050919050565b82818337600083830152505050565b60005b838110156127a2578082015181840152602081019050612787565b838111156127b1576000848401525b50505050565b6000601f19601f830116905091905056fea265627a7a72305820d5f6e363eabb6eb962d542b0a1ff1840e5b6ecb20b4f517b32fc815ec068fa216c6578706572696d656e74616cf50037",
  "source": "pragma solidity ^0.5.0;\r\npragma experimental ABIEncoderV2;\r\n\r\nimport \"./safemath.sol\";\r\n\r\ncontract HomeStay {\r\n    using SafeMath for uint256;\r\n\r\n    uint public roomCount;\r\n    uint public bookingCount;\r\n\r\n    constructor() public {\r\n        roomCount = 0;\r\n        bookingCount = 0;\r\n    }\r\n\r\n    mapping(address => Landlord) public landLordDetails;\r\n    Room[] public rooms;\r\n    Booking[] public bookings;\r\n    // mapping(uint => Room) public rooms;\r\n    // mapping (uint=>Booking) public bookings;\r\n\r\n    struct Landlord {\r\n        string name;\r\n        string email;\r\n        string contactNumber;\r\n    }\r\n\r\n    event LandlordCreated (\r\n        address indexed _owner,\r\n        string _name,\r\n        string _email,\r\n        string _contactNumber\r\n    );\r\n\r\n    enum RoomType {Bungalow, Villa, Apartment, Penthouse, House}\r\n\r\n    struct Location {\r\n        string latitude;\r\n        string longitude;\r\n    }\r\n\r\n    struct Room {\r\n        uint roomId;    //we will have a room with id 0\r\n        string roomName;\r\n        RoomType roomType;\r\n        string imgHashes;\r\n        string description;\r\n        address payable owner;\r\n        uint upVotes;\r\n        uint rentPerDay;    //in wei, in frontend - ether\r\n        uint8 numberOfGuestsCanStay;\r\n        Location location;\r\n    }\r\n\r\n    event RoomCreated (\r\n        uint roomCount,\r\n        string _roomName,\r\n        RoomType _roomType,\r\n        address payable _owner,\r\n        uint _rentPerDay\r\n    );\r\n\r\n    enum BookingStatus { Booked , Refunded, CheckedIn}\r\n\r\n    struct Booking {\r\n        uint bookingId; //we will have a booking with id 0\r\n        uint roomId;\r\n        uint startTime;\r\n        uint endTime;\r\n        uint bookedAt;\r\n        uint amount;\r\n        uint totalDays;\r\n        address payable owner;\r\n        address payable tenant;\r\n        BookingStatus bookingStatus;\r\n    }\r\n\r\n    event Booked (\r\n        uint _bookingId,\r\n        uint _roomId,\r\n        address payable indexed _owner,\r\n        address payable indexed _tenant,\r\n        BookingStatus _bookingStatus\r\n    );\r\n\r\n     event BookingCancelled (\r\n        uint _bookingId,\r\n        uint _roomId,\r\n        address payable indexed _owner,\r\n        address payable indexed _tenant,\r\n        BookingStatus _bookingStatus\r\n    );\r\n\r\n    function createLandlordAccount(string memory _name, string memory _email, string memory _contactNumber) public returns(bool) {\r\n        require(bytes(_name).length > 0);\r\n        require(bytes(_email).length > 0);\r\n        require(bytes(_contactNumber).length > 0);\r\n        landLordDetails[msg.sender] = Landlord(_name, _email, _contactNumber);\r\n        emit LandlordCreated(msg.sender, _name, _email, _contactNumber);\r\n        return true;\r\n    }\r\n\r\n    function createRoom(string memory _roomName, uint8 _roomType, string memory _imgHashes, string memory _description, uint _rentPerDay, uint8 _numberOfGuestsCanStay, string memory _lat, string memory _long) public returns(bool){\r\n        require(bytes(_roomName).length > 0);\r\n        require(bytes(_description).length > 0);\r\n        RoomType ourRoomType = RoomType(_roomType);\r\n        rooms.push(Room(roomCount, _roomName, ourRoomType, _imgHashes , _description, msg.sender, 0, _rentPerDay, _numberOfGuestsCanStay, Location(_lat, _long)));\r\n        roomCount = roomCount.add(1);\r\n        emit RoomCreated(roomCount ,_roomName, ourRoomType, msg.sender, _rentPerDay);\r\n        return true;\r\n    }\r\n\r\n    function getAllRooms() public view returns(Room[] memory) {\r\n        return rooms;\r\n    }\r\n\r\n    // function getRoomsOfOwner()\r\n\r\n    function bookRoom(uint _roomId, uint _startTime, uint _endTime, address payable _owner, uint8 _bookingStatus) payable external returns(bool) {\r\n        require(_roomId < roomCount);\r\n        require(rooms[_roomId].owner == _owner);\r\n        for(uint i=0; i < bookingCount; i++) {\r\n            if(bookings[i].bookingStatus != BookingStatus.Refunded) {\r\n                if(bookings[i].startTime <= _startTime){\r\n                require(bookings[i].endTime <= _endTime);\r\n                }\r\n                else if(bookings[i].startTime >= _startTime){\r\n                    require(bookings[i].endTime >= _endTime);\r\n                }\r\n            }\r\n        }\r\n        uint _days = (_endTime - _startTime) / 60 / 60 / 24;\r\n        require(_days*(rooms[_roomId].rentPerDay) == msg.value);\r\n        BookingStatus _ourBookingStatus = BookingStatus(_bookingStatus);\r\n        bookings.push(Booking(bookingCount, _roomId, _startTime, _endTime, block.timestamp, msg.value, _days, _owner, msg.sender, _ourBookingStatus));\r\n        emit Booked(bookingCount, _roomId, _owner, msg.sender, _ourBookingStatus);\r\n        bookingCount = bookingCount.add(1);\r\n        return true;\r\n\r\n    }\r\n\r\n\r\n    function getAllBookings() public view returns(Booking[] memory) {\r\n        return bookings;\r\n    }\r\n\r\n    function cancelBooking(uint _bookingId) public payable returns(bool) {\r\n        require(_bookingId < bookingCount);\r\n        require(bookings[_bookingId].bookingStatus == BookingStatus.Booked);\r\n        require(bookings[_bookingId].startTime > block.timestamp);\r\n        require(bookings[_bookingId].tenant == msg.sender);\r\n        bookings[_bookingId].bookingStatus == BookingStatus.Refunded;\r\n        uint amountToRefund = ((bookings[_bookingId].startTime - block.timestamp)*(100) * bookings[_bookingId].amount)/(bookings[_bookingId].startTime - bookings[_bookingId].bookedAt);\r\n        msg.sender.transfer(amountToRefund);\r\n        bookings[_bookingId].owner.transfer(bookings[_bookingId].amount - amountToRefund);\r\n        emit BookingCancelled(_bookingId, bookings[_bookingId].roomId, bookings[_bookingId].owner, msg.sender, bookings[_bookingId].bookingStatus);\r\n        return true;\r\n    }\r\n\r\n    // function checkIn\r\n}",
  "sourcePath": "C:/Users/NEHA/OneDrive/Desktop/homely/homeStay/src/contracts/HomeStay.sol",
  "compiler": {
    "name": "solc",
    "version": "0.5.0+commit.1d4f565a.Emscripten.clang"
  },
  "schemaVersion": "3.0.1",
  "updatedAt": "2022-06-12T08:50:05.695Z",
  "devdoc": {
    "methods": {}
  },
  "userdoc": {
    "methods": {}
  }
}