{
  "contractName": "HomeStay",
  "abi": [
    {
      "constant": true,
      "inputs": [
        {
          "name": "",
          "type": "uint256"
        }
      ],
      "name": "rooms",
      "outputs": [
        {
          "name": "roomId",
          "type": "uint256"
        },
        {
          "name": "roomName",
          "type": "string"
        },
        {
          "name": "roomType",
          "type": "uint8"
        },
        {
          "name": "imgHashes",
          "type": "string"
        },
        {
          "name": "description",
          "type": "string"
        },
        {
          "name": "landlord",
          "type": "address"
        },
        {
          "name": "upVotes",
          "type": "uint256"
        },
        {
          "name": "rentPerDay",
          "type": "uint256"
        },
        {
          "name": "numberOfGuestsCanStay",
          "type": "uint8"
        },
        {
          "components": [
            {
              "name": "latitude",
              "type": "string"
            },
            {
              "name": "longitude",
              "type": "string"
            },
            {
              "name": "state",
              "type": "string"
            },
            {
              "name": "country",
              "type": "string"
            }
          ],
          "name": "location",
          "type": "tuple"
        }
      ],
      "payable": false,
      "stateMutability": "view",
      "type": "function",
      "signature": "0x1bae0ac8"
    },
    {
      "constant": true,
      "inputs": [
        {
          "name": "",
          "type": "uint256"
        }
      ],
      "name": "bookings",
      "outputs": [
        {
          "name": "bookingId",
          "type": "uint256"
        },
        {
          "name": "roomId",
          "type": "uint256"
        },
        {
          "name": "startTime",
          "type": "uint256"
        },
        {
          "name": "endTime",
          "type": "uint256"
        },
        {
          "name": "bookedAt",
          "type": "uint256"
        },
        {
          "name": "amount",
          "type": "uint256"
        },
        {
          "name": "totalDays",
          "type": "uint256"
        },
        {
          "name": "landlord",
          "type": "address"
        },
        {
          "name": "tenant",
          "type": "address"
        },
        {
          "name": "bookingStatus",
          "type": "uint8"
        }
      ],
      "payable": false,
      "stateMutability": "view",
      "type": "function",
      "signature": "0x1dab301e"
    },
    {
      "constant": true,
      "inputs": [],
      "name": "bookingCount",
      "outputs": [
        {
          "name": "",
          "type": "uint256"
        }
      ],
      "payable": false,
      "stateMutability": "view",
      "type": "function",
      "signature": "0x6d759172"
    },
    {
      "constant": true,
      "inputs": [
        {
          "name": "",
          "type": "address"
        }
      ],
      "name": "landLordDetails",
      "outputs": [
        {
          "name": "name",
          "type": "string"
        },
        {
          "name": "email",
          "type": "string"
        },
        {
          "name": "contactNumber",
          "type": "string"
        }
      ],
      "payable": false,
      "stateMutability": "view",
      "type": "function",
      "signature": "0x86739d43"
    },
    {
      "constant": true,
      "inputs": [],
      "name": "owner",
      "outputs": [
        {
          "name": "",
          "type": "address"
        }
      ],
      "payable": false,
      "stateMutability": "view",
      "type": "function",
      "signature": "0x8da5cb5b"
    },
    {
      "constant": true,
      "inputs": [],
      "name": "roomCount",
      "outputs": [
        {
          "name": "",
          "type": "uint256"
        }
      ],
      "payable": false,
      "stateMutability": "view",
      "type": "function",
      "signature": "0xdf93a4e3"
    },
    {
      "inputs": [],
      "payable": false,
      "stateMutability": "nonpayable",
      "type": "constructor",
      "signature": "constructor"
    },
    {
      "anonymous": false,
      "inputs": [
        {
          "indexed": true,
          "name": "_landlord",
          "type": "address"
        },
        {
          "indexed": false,
          "name": "_name",
          "type": "string"
        },
        {
          "indexed": false,
          "name": "_email",
          "type": "string"
        },
        {
          "indexed": false,
          "name": "_contactNumber",
          "type": "string"
        }
      ],
      "name": "LandlordCreated",
      "type": "event",
      "signature": "0xce1251d1b17b8713067ad8d469b75afb6da6f16ccb9ae5e18c5ca4cb6181eaa8"
    },
    {
      "anonymous": false,
      "inputs": [
        {
          "indexed": false,
          "name": "_roomId",
          "type": "uint256"
        },
        {
          "indexed": false,
          "name": "_roomName",
          "type": "string"
        },
        {
          "indexed": false,
          "name": "_roomType",
          "type": "uint8"
        },
        {
          "indexed": false,
          "name": "_landlord",
          "type": "address"
        },
        {
          "indexed": false,
          "name": "_rentPerDay",
          "type": "uint256"
        }
      ],
      "name": "RoomCreated",
      "type": "event",
      "signature": "0x6bc6c5b765e309d60c416ff0f90e67d7fa30045c0d1ffee1ad147ffd9a35e96d"
    },
    {
      "anonymous": false,
      "inputs": [
        {
          "indexed": false,
          "name": "_bookingId",
          "type": "uint256"
        },
        {
          "indexed": false,
          "name": "_roomId",
          "type": "uint256"
        },
        {
          "indexed": true,
          "name": "_landlord",
          "type": "address"
        },
        {
          "indexed": true,
          "name": "_tenant",
          "type": "address"
        },
        {
          "indexed": false,
          "name": "_bookingStatus",
          "type": "uint8"
        }
      ],
      "name": "Booked",
      "type": "event",
      "signature": "0x90d3eb3cc72f76c87893095fe8ea9bbfedc0b422e430ad2bb4708467991eb279"
    },
    {
      "anonymous": false,
      "inputs": [
        {
          "indexed": false,
          "name": "_bookingId",
          "type": "uint256"
        },
        {
          "indexed": false,
          "name": "_roomId",
          "type": "uint256"
        },
        {
          "indexed": true,
          "name": "_landlord",
          "type": "address"
        },
        {
          "indexed": true,
          "name": "_tenant",
          "type": "address"
        },
        {
          "indexed": false,
          "name": "_bookingStatus",
          "type": "uint8"
        }
      ],
      "name": "BookingCancelled",
      "type": "event",
      "signature": "0x1576e22754024919b520ba328aab237062583023a5f71482b3694c187eb5dee8"
    },
    {
      "constant": false,
      "inputs": [
        {
          "name": "_name",
          "type": "string"
        },
        {
          "name": "_email",
          "type": "string"
        },
        {
          "name": "_contactNumber",
          "type": "string"
        }
      ],
      "name": "createLandlordAccount",
      "outputs": [
        {
          "name": "",
          "type": "bool"
        }
      ],
      "payable": false,
      "stateMutability": "nonpayable",
      "type": "function",
      "signature": "0xb3e75a34"
    },
    {
      "constant": false,
      "inputs": [
        {
          "name": "_roomName",
          "type": "string"
        },
        {
          "name": "_roomType",
          "type": "uint8"
        },
        {
          "name": "_imgHashes",
          "type": "string"
        },
        {
          "name": "_description",
          "type": "string"
        },
        {
          "name": "_rentPerDay",
          "type": "uint256"
        },
        {
          "name": "_numberOfGuestsCanStay",
          "type": "uint8"
        },
        {
          "name": "_lat",
          "type": "string"
        },
        {
          "name": "_long",
          "type": "string"
        },
        {
          "name": "_state",
          "type": "string"
        },
        {
          "name": "_country",
          "type": "string"
        }
      ],
      "name": "createRoom",
      "outputs": [
        {
          "name": "",
          "type": "bool"
        }
      ],
      "payable": false,
      "stateMutability": "nonpayable",
      "type": "function",
      "signature": "0x4ba85037"
    },
    {
      "constant": true,
      "inputs": [],
      "name": "getAllRooms",
      "outputs": [
        {
          "components": [
            {
              "name": "roomId",
              "type": "uint256"
            },
            {
              "name": "roomName",
              "type": "string"
            },
            {
              "name": "roomType",
              "type": "uint8"
            },
            {
              "name": "imgHashes",
              "type": "string"
            },
            {
              "name": "description",
              "type": "string"
            },
            {
              "name": "landlord",
              "type": "address"
            },
            {
              "name": "upVotes",
              "type": "uint256"
            },
            {
              "name": "rentPerDay",
              "type": "uint256"
            },
            {
              "name": "numberOfGuestsCanStay",
              "type": "uint8"
            },
            {
              "components": [
                {
                  "name": "latitude",
                  "type": "string"
                },
                {
                  "name": "longitude",
                  "type": "string"
                },
                {
                  "name": "state",
                  "type": "string"
                },
                {
                  "name": "country",
                  "type": "string"
                }
              ],
              "name": "location",
              "type": "tuple"
            }
          ],
          "name": "",
          "type": "tuple[]"
        }
      ],
      "payable": false,
      "stateMutability": "view",
      "type": "function",
      "signature": "0xf794cf2d"
    },
    {
      "constant": false,
      "inputs": [
        {
          "name": "_roomId",
          "type": "uint256"
        },
        {
          "name": "_startTime",
          "type": "uint256"
        },
        {
          "name": "_endTime",
          "type": "uint256"
        },
        {
          "name": "_landlord",
          "type": "address"
        }
      ],
      "name": "bookRoom",
      "outputs": [
        {
          "name": "",
          "type": "bool"
        }
      ],
      "payable": true,
      "stateMutability": "payable",
      "type": "function",
      "signature": "0x9d8d3551"
    },
    {
      "constant": true,
      "inputs": [],
      "name": "getAllBookings",
      "outputs": [
        {
          "components": [
            {
              "name": "bookingId",
              "type": "uint256"
            },
            {
              "name": "roomId",
              "type": "uint256"
            },
            {
              "name": "startTime",
              "type": "uint256"
            },
            {
              "name": "endTime",
              "type": "uint256"
            },
            {
              "name": "bookedAt",
              "type": "uint256"
            },
            {
              "name": "amount",
              "type": "uint256"
            },
            {
              "name": "totalDays",
              "type": "uint256"
            },
            {
              "name": "landlord",
              "type": "address"
            },
            {
              "name": "tenant",
              "type": "address"
            },
            {
              "name": "bookingStatus",
              "type": "uint8"
            }
          ],
          "name": "",
          "type": "tuple[]"
        }
      ],
      "payable": false,
      "stateMutability": "view",
      "type": "function",
      "signature": "0x4245f2fe"
    },
    {
      "constant": false,
      "inputs": [
        {
          "name": "_bookingId",
          "type": "uint256"
        }
      ],
      "name": "cancelBooking",
      "outputs": [
        {
          "name": "",
          "type": "bool"
        }
      ],
      "payable": true,
      "stateMutability": "payable",
      "type": "function",
      "signature": "0x0dca825e"
    }
  ],
  "bytecode": "0x608060405234801561001057600080fd5b5060008081905550600060018190555033600260006101000a81548173ffffffffffffffffffffffffffffffffffffffff021916908373ffffffffffffffffffffffffffffffffffffffff160217905550612b2d806100706000396000f3fe6080604052600436106100ba576000357c0100000000000000000000000000000000000000000000000000000000900463ffffffff1680630dca825e146100bf5780631bae0ac8146100ef5780631dab301e146101355780634245f2fe1461017b5780634ba85037146101a65780636d759172146101e357806386739d431461020e5780638da5cb5b1461024d5780639d8d355114610278578063b3e75a34146102a8578063df93a4e3146102e5578063f794cf2d14610310575b600080fd5b6100d960048036036100d491908101906121a6565b61033b565b6040516100e69190612654565b60405180910390f35b3480156100fb57600080fd5b50610116600480360361011191908101906121a6565b610681565b60405161012c9a9998979695949392919061277c565b60405180910390f35b34801561014157600080fd5b5061015c600480360361015791908101906121a6565b610b79565b6040516101729a9998979695949392919061286b565b60405180910390f35b34801561018757600080fd5b50610190610c29565b60405161019d9190612610565b60405180910390f35b3480156101b257600080fd5b506101cd60048036036101c89190810190612023565b610da9565b6040516101da9190612654565b60405180910390f35b3480156101ef57600080fd5b506101f8611093565b6040516102059190612707565b60405180910390f35b34801561021a57600080fd5b5061023560048036036102309190810190611f63565b611099565b604051610244939291906126bb565b60405180910390f35b34801561025957600080fd5b5061026261128b565b60405161026f91906125f5565b60405180910390f35b610292600480360361028d91908101906121cf565b6112b1565b60405161029f9190612654565b60405180910390f35b3480156102b457600080fd5b506102cf60048036036102ca9190810190611f8c565b611615565b6040516102dc9190612654565b60405180910390f35b3480156102f157600080fd5b506102fa611758565b6040516103079190612707565b60405180910390f35b34801561031c57600080fd5b5061032561175e565b6040516103329190612632565b60405180910390f35b60006001548210151561034d57600080fd5b610355611d8d565b60058381548110151561036457fe5b90600052602060002090600902016101406040519081016040529081600082015481526020016001820154815260200160028201548152602001600382015481526020016004820154815260200160058201548152602001600682015481526020016007820160009054906101000a900473ffffffffffffffffffffffffffffffffffffffff1673ffffffffffffffffffffffffffffffffffffffff1673ffffffffffffffffffffffffffffffffffffffff1681526020016008820160009054906101000a900473ffffffffffffffffffffffffffffffffffffffff1673ffffffffffffffffffffffffffffffffffffffff1673ffffffffffffffffffffffffffffffffffffffff1681526020016008820160149054906101000a900460ff16600281111561048f57fe5b600281111561049a57fe5b815250509050600060028111156104ad57fe5b81610120015160028111156104be57fe5b1415156104ca57600080fd5b4281604001511115156104dc57600080fd5b3373ffffffffffffffffffffffffffffffffffffffff1681610100015173ffffffffffffffffffffffffffffffffffffffff1614151561051b57600080fd5b6001816101200190600281111561052e57fe5b9081600281111561053b57fe5b81525050600081608001518260400151038260a00151606442856040015103020281151561056557fe5b0490503373ffffffffffffffffffffffffffffffffffffffff166108fc829081150290604051600060405180830381858888f193505050501580156105ae573d6000803e3d6000fd5b508160e0015173ffffffffffffffffffffffffffffffffffffffff166108fc828460a00151039081150290604051600060405180830381858888f193505050501580156105ff573d6000803e3d6000fd5b503373ffffffffffffffffffffffffffffffffffffffff168260e0015173ffffffffffffffffffffffffffffffffffffffff167f1576e22754024919b520ba328aab237062583023a5f71482b3694c187eb5dee886856020015186610120015160405161066e93929190612834565b60405180910390a3600192505050919050565b60048181548110151561069057fe5b90600052602060002090600d0201600091509050806000015490806001018054600181600116156101000203166002900480601f0160208091040260200160405190810160405280929190818152602001828054600181600116156101000203166002900480156107425780601f1061071757610100808354040283529160200191610742565b820191906000526020600020905b81548152906001019060200180831161072557829003601f168201915b5050505050908060020160009054906101000a900460ff1690806003018054600181600116156101000203166002900480601f0160208091040260200160405190810160405280929190818152602001828054600181600116156101000203166002900480156107f35780601f106107c8576101008083540402835291602001916107f3565b820191906000526020600020905b8154815290600101906020018083116107d657829003601f168201915b505050505090806004018054600181600116156101000203166002900480601f0160208091040260200160405190810160405280929190818152602001828054600181600116156101000203166002900480156108915780601f1061086657610100808354040283529160200191610891565b820191906000526020600020905b81548152906001019060200180831161087457829003601f168201915b5050505050908060050160009054906101000a900473ffffffffffffffffffffffffffffffffffffffff16908060060154908060070154908060080160009054906101000a900460ff16908060090160806040519081016040529081600082018054600181600116156101000203166002900480601f0160208091040260200160405190810160405280929190818152602001828054600181600116156101000203166002900480156109855780601f1061095a57610100808354040283529160200191610985565b820191906000526020600020905b81548152906001019060200180831161096857829003601f168201915b50505050508152602001600182018054600181600116156101000203166002900480601f016020809104026020016040519081016040528092919081815260200182805460018160011615610100020316600290048015610a275780601f106109fc57610100808354040283529160200191610a27565b820191906000526020600020905b815481529060010190602001808311610a0a57829003601f168201915b50505050508152602001600282018054600181600116156101000203166002900480601f016020809104026020016040519081016040528092919081815260200182805460018160011615610100020316600290048015610ac95780601f10610a9e57610100808354040283529160200191610ac9565b820191906000526020600020905b815481529060010190602001808311610aac57829003601f168201915b50505050508152602001600382018054600181600116156101000203166002900480601f016020809104026020016040519081016040528092919081815260200182805460018160011615610100020316600290048015610b6b5780601f10610b4057610100808354040283529160200191610b6b565b820191906000526020600020905b815481529060010190602001808311610b4e57829003601f168201915b50505050508152505090508a565b600581815481101515610b8857fe5b90600052602060002090600902016000915090508060000154908060010154908060020154908060030154908060040154908060050154908060060154908060070160009054906101000a900473ffffffffffffffffffffffffffffffffffffffff16908060080160009054906101000a900473ffffffffffffffffffffffffffffffffffffffff16908060080160149054906101000a900460ff1690508a565b60606005805480602002602001604051908101604052809291908181526020016000905b82821015610da057838290600052602060002090600902016101406040519081016040529081600082015481526020016001820154815260200160028201548152602001600382015481526020016004820154815260200160058201548152602001600682015481526020016007820160009054906101000a900473ffffffffffffffffffffffffffffffffffffffff1673ffffffffffffffffffffffffffffffffffffffff1673ffffffffffffffffffffffffffffffffffffffff1681526020016008820160009054906101000a900473ffffffffffffffffffffffffffffffffffffffff1673ffffffffffffffffffffffffffffffffffffffff1673ffffffffffffffffffffffffffffffffffffffff1681526020016008820160149054906101000a900460ff166002811115610d8257fe5b6002811115610d8d57fe5b8152505081526020019060010190610c4d565b50505050905090565b6000808b51111515610dba57600080fd5b60008851111515610dca57600080fd5b60008a60ff166004811115610ddb57fe5b905060046101406040519081016040528060005481526020018e8152602001836004811115610e0657fe5b81526020018c81526020018b81526020013373ffffffffffffffffffffffffffffffffffffffff168152602001600081526020018a81526020018960ff1681526020016080604051908101604052808a8152602001898152602001888152602001878152508152509080600181540180825580915050906001820390600052602060002090600d020160009091929091909150600082015181600001556020820151816001019080519060200190610ebf929190611e18565b5060408201518160020160006101000a81548160ff02191690836004811115610ee457fe5b02179055506060820151816003019080519060200190610f05929190611e18565b506080820151816004019080519060200190610f22929190611e18565b5060a08201518160050160006101000a81548173ffffffffffffffffffffffffffffffffffffffff021916908373ffffffffffffffffffffffffffffffffffffffff16021790555060c0820151816006015560e082015181600701556101008201518160080160006101000a81548160ff021916908360ff160217905550610120820151816009016000820151816000019080519060200190610fc6929190611e18565b506020820151816001019080519060200190610fe3929190611e18565b506040820151816002019080519060200190611000929190611e18565b50606082015181600301908051906020019061101d929190611e18565b5050505050507f6bc6c5b765e309d60c416ff0f90e67d7fa30045c0d1ffee1ad147ffd9a35e96d6000548d83338c60405161105c959493929190612722565b60405180910390a161107a6001600054611d0090919063ffffffff16565b60008190555060019150509a9950505050505050505050565b60015481565b6003602052806000526040600020600091509050806000018054600181600116156101000203166002900480601f0160208091040260200160405190810160405280929190818152602001828054600181600116156101000203166002900480156111455780601f1061111a57610100808354040283529160200191611145565b820191906000526020600020905b81548152906001019060200180831161112857829003601f168201915b505050505090806001018054600181600116156101000203166002900480601f0160208091040260200160405190810160405280929190818152602001828054600181600116156101000203166002900480156111e35780601f106111b8576101008083540402835291602001916111e3565b820191906000526020600020905b8154815290600101906020018083116111c657829003601f168201915b505050505090806002018054600181600116156101000203166002900480601f0160208091040260200160405190810160405280929190818152602001828054600181600116156101000203166002900480156112815780601f1061125657610100808354040283529160200191611281565b820191906000526020600020905b81548152906001019060200180831161126457829003601f168201915b5050505050905083565b600260009054906101000a900473ffffffffffffffffffffffffffffffffffffffff1681565b60008054851015156112c257600080fd5b8173ffffffffffffffffffffffffffffffffffffffff166004868154811015156112e857fe5b90600052602060002090600d020160050160009054906101000a900473ffffffffffffffffffffffffffffffffffffffff1673ffffffffffffffffffffffffffffffffffffffff1614151561133c57600080fd5b60006113518585611d1e90919063ffffffff16565b90506113696201518082611d3790919063ffffffff16565b90503460048781548110151561137b57fe5b90600052602060002090600d020160070154820214151561139b57600080fd5b60003490506113b4606482611d3790919063ffffffff16565b90506113ca606382611d5290919063ffffffff16565b9050600080905060056101406040519081016040528060015481526020018a81526020018981526020018881526020014281526020018481526020018581526020018773ffffffffffffffffffffffffffffffffffffffff1681526020013373ffffffffffffffffffffffffffffffffffffffff16815260200183600281111561145057fe5b81525090806001815401808255809150509060018203906000526020600020906009020160009091929091909150600082015181600001556020820151816001015560408201518160020155606082015181600301556080820151816004015560a0820151816005015560c0820151816006015560e08201518160070160006101000a81548173ffffffffffffffffffffffffffffffffffffffff021916908373ffffffffffffffffffffffffffffffffffffffff1602179055506101008201518160080160006101000a81548173ffffffffffffffffffffffffffffffffffffffff021916908373ffffffffffffffffffffffffffffffffffffffff1602179055506101208201518160080160146101000a81548160ff0219169083600281111561157857fe5b02179055505050503373ffffffffffffffffffffffffffffffffffffffff168573ffffffffffffffffffffffffffffffffffffffff167f90d3eb3cc72f76c87893095fe8ea9bbfedc0b422e430ad2bb4708467991eb2796001548b856040516115e393929190612834565b60405180910390a361160060018054611d0090919063ffffffff16565b60018190555060019350505050949350505050565b600080845111151561162657600080fd5b6000835111151561163657600080fd5b6000825111151561164657600080fd5b60606040519081016040528085815260200184815260200183815250600360003373ffffffffffffffffffffffffffffffffffffffff1673ffffffffffffffffffffffffffffffffffffffff16815260200190815260200160002060008201518160000190805190602001906116bd929190611e18565b5060208201518160010190805190602001906116da929190611e18565b5060408201518160020190805190602001906116f7929190611e18565b509050503373ffffffffffffffffffffffffffffffffffffffff167fce1251d1b17b8713067ad8d469b75afb6da6f16ccb9ae5e18c5ca4cb6181eaa88585856040516117459392919061266f565b60405180910390a2600190509392505050565b60005481565b60606004805480602002602001604051908101604052809291908181526020016000905b82821015611cf757838290600052602060002090600d0201610140604051908101604052908160008201548152602001600182018054600181600116156101000203166002900480601f01602080910402602001604051908101604052809291908181526020018280546001816001161561010002031660029004801561184a5780601f1061181f5761010080835404028352916020019161184a565b820191906000526020600020905b81548152906001019060200180831161182d57829003601f168201915b505050505081526020016002820160009054906101000a900460ff16600481111561187157fe5b600481111561187c57fe5b8152602001600382018054600181600116156101000203166002900480601f0160208091040260200160405190810160405280929190818152602001828054600181600116156101000203166002900480156119195780601f106118ee57610100808354040283529160200191611919565b820191906000526020600020905b8154815290600101906020018083116118fc57829003601f168201915b50505050508152602001600482018054600181600116156101000203166002900480601f0160208091040260200160405190810160405280929190818152602001828054600181600116156101000203166002900480156119bb5780601f10611990576101008083540402835291602001916119bb565b820191906000526020600020905b81548152906001019060200180831161199e57829003601f168201915b505050505081526020016005820160009054906101000a900473ffffffffffffffffffffffffffffffffffffffff1673ffffffffffffffffffffffffffffffffffffffff1673ffffffffffffffffffffffffffffffffffffffff16815260200160068201548152602001600782015481526020016008820160009054906101000a900460ff1660ff1660ff1681526020016009820160806040519081016040529081600082018054600181600116156101000203166002900480601f016020809104026020016040519081016040528092919081815260200182805460018160011615610100020316600290048015611af55780601f10611aca57610100808354040283529160200191611af5565b820191906000526020600020905b815481529060010190602001808311611ad857829003601f168201915b50505050508152602001600182018054600181600116156101000203166002900480601f016020809104026020016040519081016040528092919081815260200182805460018160011615610100020316600290048015611b975780601f10611b6c57610100808354040283529160200191611b97565b820191906000526020600020905b815481529060010190602001808311611b7a57829003601f168201915b50505050508152602001600282018054600181600116156101000203166002900480601f016020809104026020016040519081016040528092919081815260200182805460018160011615610100020316600290048015611c395780601f10611c0e57610100808354040283529160200191611c39565b820191906000526020600020905b815481529060010190602001808311611c1c57829003601f168201915b50505050508152602001600382018054600181600116156101000203166002900480601f016020809104026020016040519081016040528092919081815260200182805460018160011615610100020316600290048015611cdb5780601f10611cb057610100808354040283529160200191611cdb565b820191906000526020600020905b815481529060010190602001808311611cbe57829003601f168201915b5050505050815250508152505081526020019060010190611782565b50505050905090565b6000808284019050838110151515611d1457fe5b8091505092915050565b6000828211151515611d2c57fe5b818303905092915050565b6000808284811515611d4557fe5b0490508091505092915050565b600080831415611d655760009050611d87565b60008284029050828482811515611d7857fe5b04141515611d8257fe5b809150505b92915050565b6101406040519081016040528060008152602001600081526020016000815260200160008152602001600081526020016000815260200160008152602001600073ffffffffffffffffffffffffffffffffffffffff168152602001600073ffffffffffffffffffffffffffffffffffffffff16815260200160006002811115611e1257fe5b81525090565b828054600181600116156101000203166002900490600052602060002090601f016020900481019282601f10611e5957805160ff1916838001178555611e87565b82800160010185558215611e87579182015b82811115611e86578251825591602001919060010190611e6b565b5b509050611e949190611e98565b5090565b611eba91905b80821115611eb6576000816000905550600101611e9e565b5090565b90565b6000611ec98235612a41565b905092915050565b6000611edd8235612a53565b905092915050565b600082601f8301121515611ef857600080fd5b8135611f0b611f0682612934565b612907565b91508082526020830160208301858383011115611f2757600080fd5b611f32838284612aa0565b50505092915050565b6000611f478235612a65565b905092915050565b6000611f5b8235612a6f565b905092915050565b600060208284031215611f7557600080fd5b6000611f8384828501611ebd565b91505092915050565b600080600060608486031215611fa157600080fd5b600084013567ffffffffffffffff811115611fbb57600080fd5b611fc786828701611ee5565b935050602084013567ffffffffffffffff811115611fe457600080fd5b611ff086828701611ee5565b925050604084013567ffffffffffffffff81111561200d57600080fd5b61201986828701611ee5565b9150509250925092565b6000806000806000806000806000806101408b8d03121561204357600080fd5b60008b013567ffffffffffffffff81111561205d57600080fd5b6120698d828e01611ee5565b9a5050602061207a8d828e01611f4f565b99505060408b013567ffffffffffffffff81111561209757600080fd5b6120a38d828e01611ee5565b98505060608b013567ffffffffffffffff8111156120c057600080fd5b6120cc8d828e01611ee5565b97505060806120dd8d828e01611f3b565b96505060a06120ee8d828e01611f4f565b95505060c08b013567ffffffffffffffff81111561210b57600080fd5b6121178d828e01611ee5565b94505060e08b013567ffffffffffffffff81111561213457600080fd5b6121408d828e01611ee5565b9350506101008b013567ffffffffffffffff81111561215e57600080fd5b61216a8d828e01611ee5565b9250506101208b013567ffffffffffffffff81111561218857600080fd5b6121948d828e01611ee5565b9150509295989b9194979a5092959850565b6000602082840312156121b857600080fd5b60006121c684828501611f3b565b91505092915050565b600080600080608085870312156121e557600080fd5b60006121f387828801611f3b565b945050602061220487828801611f3b565b935050604061221587828801611f3b565b925050606061222687828801611ed1565b91505092959194509250565b61223b816129c0565b82525050565b600061224c8261297a565b80845260208401935061225e83612960565b60005b82811015612291576122748683516123a4565b61227d826129a6565b915061014086019550600181019050612261565b50849250505092915050565b60006122a882612985565b808452602084019350836020820285016122c18561296d565b60005b848110156122fa5783830388526122dc8383516124e8565b92506122e7826129b3565b91506020880197506001810190506122c4565b508196508694505050505092915050565b612314816129d2565b82525050565b61232381612a7c565b82525050565b61233281612a8e565b82525050565b60006123438261299b565b808452612357816020860160208601612aaf565b61236081612ae2565b602085010191505092915050565b600061237982612990565b80845261238d816020860160208601612aaf565b61239681612ae2565b602085010191505092915050565b610140820160008201516123bb60008501826125d7565b5060208201516123ce60208501826125d7565b5060408201516123e160408501826125d7565b5060608201516123f460608501826125d7565b50608082015161240760808501826125d7565b5060a082015161241a60a08501826125d7565b5060c082015161242d60c08501826125d7565b5060e082015161244060e0850182612232565b50610100820151612455610100850182612232565b5061012082015161246a61012085018261231a565b50505050565b6000608083016000830151848203600086015261248d828261236e565b915050602083015184820360208601526124a7828261236e565b915050604083015184820360408601526124c1828261236e565b915050606083015184820360608601526124db828261236e565b9150508091505092915050565b60006101408301600083015161250160008601826125d7565b5060208301518482036020860152612519828261236e565b915050604083015161252e6040860182612329565b5060608301518482036060860152612546828261236e565b91505060808301518482036080860152612560828261236e565b91505060a083015161257560a0860182612232565b5060c083015161258860c08601826125d7565b5060e083015161259b60e08601826125d7565b506101008301516125b06101008601826125e6565b506101208301518482036101208601526125ca8282612470565b9150508091505092915050565b6125e081612a2a565b82525050565b6125ef81612a34565b82525050565b600060208201905061260a6000830184612232565b92915050565b6000602082019050818103600083015261262a8184612241565b905092915050565b6000602082019050818103600083015261264c818461229d565b905092915050565b6000602082019050612669600083018461230b565b92915050565b600060608201905081810360008301526126898186612338565b9050818103602083015261269d8185612338565b905081810360408301526126b18184612338565b9050949350505050565b600060608201905081810360008301526126d5818661236e565b905081810360208301526126e9818561236e565b905081810360408301526126fd818461236e565b9050949350505050565b600060208201905061271c60008301846125d7565b92915050565b600060a08201905061273760008301886125d7565b81810360208301526127498187612338565b90506127586040830186612329565b6127656060830185612232565b61277260808301846125d7565b9695505050505050565b600061014082019050612792600083018d6125d7565b81810360208301526127a4818c61236e565b90506127b3604083018b612329565b81810360608301526127c5818a61236e565b905081810360808301526127d9818961236e565b90506127e860a0830188612232565b6127f560c08301876125d7565b61280260e08301866125d7565b6128106101008301856125e6565b8181036101208301526128238184612470565b90509b9a5050505050505050505050565b600060608201905061284960008301866125d7565b61285660208301856125d7565b612863604083018461231a565b949350505050565b600061014082019050612881600083018d6125d7565b61288e602083018c6125d7565b61289b604083018b6125d7565b6128a8606083018a6125d7565b6128b560808301896125d7565b6128c260a08301886125d7565b6128cf60c08301876125d7565b6128dc60e0830186612232565b6128ea610100830185612232565b6128f861012083018461231a565b9b9a5050505050505050505050565b6000604051905081810181811067ffffffffffffffff8211171561292a57600080fd5b8060405250919050565b600067ffffffffffffffff82111561294b57600080fd5b601f19601f8301169050602081019050919050565b6000602082019050919050565b6000602082019050919050565b600081519050919050565b600081519050919050565b600081519050919050565b600081519050919050565b6000602082019050919050565b6000602082019050919050565b60006129cb82612a0a565b9050919050565b60008115159050919050565b60006003821015156129ec57fe5b819050919050565b6000600582101515612a0257fe5b819050919050565b600073ffffffffffffffffffffffffffffffffffffffff82169050919050565b6000819050919050565b600060ff82169050919050565b6000612a4c82612a0a565b9050919050565b6000612a5e82612a0a565b9050919050565b6000819050919050565b600060ff82169050919050565b6000612a87826129de565b9050919050565b6000612a99826129f4565b9050919050565b82818337600083830152505050565b60005b83811015612acd578082015181840152602081019050612ab2565b83811115612adc576000848401525b50505050565b6000601f19601f830116905091905056fea265627a7a72305820c55ca0ac17909e4ad39ef61bc93eebc51a218d095bba48fa5b6205ca22dc8e236c6578706572696d656e74616cf50037",
  "source": "pragma solidity ^0.5.0;\r\npragma experimental ABIEncoderV2;\r\n\r\nimport \"./safemath.sol\";\r\n\r\n/// @title main contract of homeStay\r\n/// @author yaswanthsaivendra\r\ncontract HomeStay {\r\n    using SafeMath for uint256;\r\n\r\n    uint public roomCount;\r\n    uint public bookingCount;\r\n    address payable public owner;\r\n\r\n    constructor() public {\r\n        roomCount = 0;\r\n        bookingCount = 0;\r\n        owner = msg.sender;\r\n    }\r\n\r\n    mapping(address => Landlord) public landLordDetails;\r\n    Room[] public rooms;\r\n    Booking[] public bookings;\r\n    // mapping(uint => Room) public rooms;\r\n    // mapping (uint=>Booking) public bookings;\r\n\r\n    struct Landlord {\r\n        string name;\r\n        string email;\r\n        string contactNumber;\r\n    }\r\n\r\n    event LandlordCreated (\r\n        address indexed _landlord,\r\n        string _name,\r\n        string _email,\r\n        string _contactNumber\r\n    );\r\n\r\n    enum RoomType {Bungalow, Villa, Apartment, Penthouse, House}\r\n\r\n    struct Location {\r\n        string latitude;\r\n        string longitude;\r\n        string state;\r\n        string country;\r\n    }\r\n\r\n    struct Room {\r\n        uint roomId;    //we will have a room with id 0\r\n        string roomName;\r\n        RoomType roomType;\r\n        string imgHashes;\r\n        string description;\r\n        address payable landlord;\r\n        uint upVotes;\r\n        uint rentPerDay;    //in wei, in frontend - ether\r\n        uint8 numberOfGuestsCanStay;\r\n        Location location;\r\n    }\r\n\r\n    event RoomCreated (\r\n        uint _roomId,\r\n        string _roomName,\r\n        RoomType _roomType,\r\n        address payable _landlord,\r\n        uint _rentPerDay\r\n    );\r\n\r\n    enum BookingStatus { Booked , Refunded, CheckedIn}\r\n\r\n    struct Booking {\r\n        uint bookingId; //we will have a booking with id 0\r\n        uint roomId;\r\n        uint startTime;\r\n        uint endTime;\r\n        uint bookedAt;\r\n        uint amount;\r\n        uint totalDays;\r\n        address payable landlord;\r\n        address payable tenant;\r\n        BookingStatus bookingStatus;\r\n    }\r\n\r\n    event Booked (\r\n        uint _bookingId,\r\n        uint _roomId,\r\n        address payable indexed _landlord,\r\n        address payable indexed _tenant,\r\n        BookingStatus _bookingStatus\r\n    );\r\n\r\n     event BookingCancelled (\r\n        uint _bookingId,\r\n        uint _roomId,\r\n        address payable indexed _landlord,\r\n        address payable indexed _tenant,\r\n        BookingStatus _bookingStatus\r\n    );\r\n\r\n    function createLandlordAccount(string memory _name, string memory _email, string memory _contactNumber) public returns(bool) {\r\n        require(bytes(_name).length > 0);\r\n        require(bytes(_email).length > 0);\r\n        require(bytes(_contactNumber).length > 0);\r\n        landLordDetails[msg.sender] = Landlord(_name, _email, _contactNumber);\r\n        emit LandlordCreated(msg.sender, _name, _email, _contactNumber);\r\n        return true;\r\n    }\r\n\r\n    function createRoom(string memory _roomName, uint8 _roomType, string memory _imgHashes, string memory _description, uint _rentPerDay, uint8 _numberOfGuestsCanStay, string memory _lat, string memory _long, string memory _state, string memory _country) public returns(bool){\r\n        require(bytes(_roomName).length > 0);\r\n        require(bytes(_description).length > 0);\r\n        RoomType ourRoomType = RoomType(_roomType);\r\n        rooms.push(Room(roomCount, _roomName, ourRoomType, _imgHashes , _description, msg.sender, 0, _rentPerDay, _numberOfGuestsCanStay, Location(_lat, _long, _state, _country)));\r\n        emit RoomCreated(roomCount ,_roomName, ourRoomType, msg.sender, _rentPerDay);\r\n        roomCount = roomCount.add(1);\r\n        return true;\r\n    }\r\n\r\n    function getAllRooms() public view returns(Room[] memory) {\r\n        return rooms;\r\n    }\r\n\r\n    // function getRoomsOfOwner()\r\n\r\n    /// @notice function to book a room\r\n    /// @dev We will take 1% ether of every booking payment so that it make up to the revenue of our app and this revenue generated can be used for gas fees for further transactions\r\n    /// @param _startTime start time of our booking in seconds from unix timestamp\r\n    /// @param _endTime end time of our booking in seconds from unix timestamp\r\n    /// @return true returns a boolean true and emit an event if the booking got succeed\r\n    function bookRoom(uint _roomId, uint _startTime, uint _endTime, address payable _landlord) payable public returns(bool) {\r\n        require(_roomId < roomCount);\r\n        require(rooms[_roomId].landlord == _landlord);\r\n        // for(uint i=0; i < bookingCount-1; i++) {\r\n        //     if(bookings[i].bookingStatus != BookingStatus.Refunded) {\r\n        //         if(bookings[i].startTime <= _startTime){\r\n        //         require(bookings[i].endTime <= _endTime);\r\n        //         }\r\n        //         else if(bookings[i].startTime >= _startTime){\r\n        //             require(bookings[i].endTime >= _endTime);\r\n        //         }\r\n        //     }\r\n        // }\r\n        uint _days = _endTime.sub(_startTime);\r\n        _days = _days.div(86400);\r\n        require(_days*(rooms[_roomId].rentPerDay) == msg.value);\r\n        uint _amount = msg.value;\r\n        _amount = _amount.div(100);\r\n        _amount = _amount.mul(99);\r\n        BookingStatus _bookingStatus = BookingStatus.Booked;\r\n        bookings.push(Booking(bookingCount, _roomId, _startTime, _endTime, block.timestamp, _amount, _days, _landlord, msg.sender, _bookingStatus));\r\n        emit Booked(bookingCount, _roomId, _landlord, msg.sender, _bookingStatus);\r\n        bookingCount = bookingCount.add(1);\r\n        return true;\r\n\r\n    }\r\n\r\n\r\n    function getAllBookings() public view returns(Booking[] memory) {\r\n        return bookings;\r\n    }\r\n\r\n    function cancelBooking(uint _bookingId) public payable returns(bool) {\r\n        require(_bookingId < bookingCount);\r\n        Booking memory _booking = bookings[_bookingId];\r\n        require(_booking.bookingStatus == BookingStatus.Booked);\r\n        require(_booking.startTime > block.timestamp);\r\n        require(_booking.tenant == msg.sender);\r\n        _booking.bookingStatus = BookingStatus.Refunded;\r\n        uint amountToRefund = ((_booking.startTime - block.timestamp)*(100) * _booking.amount)/(_booking.startTime - _booking.bookedAt);\r\n        msg.sender.transfer(amountToRefund);\r\n        _booking.landlord.transfer(_booking.amount - amountToRefund);\r\n        emit BookingCancelled(_bookingId, _booking.roomId, _booking.landlord, msg.sender, _booking.bookingStatus);\r\n        return true;\r\n    }\r\n\r\n    // function checkIn\r\n}",
  "sourcePath": "C:/Users/NEHA/OneDrive/Desktop/homely/homeStay/src/contracts/HomeStay.sol",
  "compiler": {
    "name": "solc",
    "version": "0.5.0+commit.1d4f565a.Emscripten.clang"
  },
  "schemaVersion": "3.0.1",
  "updatedAt": "2022-06-12T11:32:53.426Z",
  "devdoc": {
    "author": "yaswanthsaivendra",
    "methods": {
      "bookRoom(uint256,uint256,uint256,address)": {
        "return": "true returns a boolean true and emit an event if the booking got succeed"
      }
    }
  },
  "userdoc": {
    "methods": {}
  }
}